:100000000C9435000C945D000C945D000C945D0024
:100010000C945D000C945D000C945D000C945D00EC
:100020000C945D000C945D000C945D000C945D00DC
:100030000C945D000C945D000C945D000C945D00CC
:100040000C9409040C945D000C945D000C945D000C
:100050000C945D000C945D000C945D000C945D00AC
:100060000C945D000C945D006C0411241FBECFEF56
:10007000D8E0DEBFCDBF11E0A0E0B1E0EEE6FDE0EC
:1000800002C005900D92A433B107D9F721E0A4E393
:10009000B1E001C01D92A83EB207E1F710E0C5E350
:1000A000D0E004C02197FE010E94A006C433D1070E
:1000B000C9F70E9470040C9419060C9400000F9369
:1000C0001F93CF93DF93EC018B01E881F9810480CA
:1000D000F581E02D09951B830A838DE090E09E87D2
:1000E0008D87E881F9810284F385E02DCE010995A1
:1000F000009701F19C0150E040E060E472E48FE081
:1001000090E00E9462068091DE019091DF01A09153
:10011000E001B091E10182179307A407B50710F43D
:10012000DA01C9018093DE019093DF01A093E00121
:10013000B093E101CE01DF91CF911F910F9108950E
:100140000895789484B5826084BD84B5816084BD4F
:1001500085B5826085BD85B5816085BDEEE6F0E040
:10016000808181608083E1E8F0E01082808182609C
:100170008083808181608083E0E8F0E0808181601D
:100180008083E1EBF0E0808184608083E0EBF0E04D
:10019000808181608083EAE7F0E0808184608083F1
:1001A000808182608083808181608083808180689B
:1001B00080831092C10008953FB7F89480913C016C
:1001C00090913D01A0913E01B0913F0126B5A89BC1
:1001D00005C02F3F19F00196A11DB11D3FBFBA2FD9
:1001E000A92F982F8827BC01CD01620F711D811D99
:1001F000911D42E0660F771F881F991F4A95D1F71E
:100200000895CF92DF92EF92FF92CF93DF930E94F7
:10021000DC00EB0189E1C82ED12CE12CF12C0E94ED
:10022000DC006C1B7D0B683E7340C8F381E0C81A8C
:10023000D108E108F108C851DC4FC114D104E10430
:10024000F10469F7DF91CF91FF90EF90DF90CF90AD
:1002500008952FB7F8946091380170913901809119
:100260003A0190913B012FBF08950F931F93CF93B5
:10027000DF93209136012F5F322F37703093360194
:1002800020FF2BC020E831FD2064347009F020628B
:10029000205FFC01EC01239600E011E064856623F9
:1002A000F1F070E0C8010E942C066F5F6187322F69
:1002B000369F030E30E0311D1124311112C0168219
:1002C000662311F0615061873196EC17FD0731F715
:1002D000DF91CF911F910F91089520E0D4CF60E07E
:1002E000E5CF31503683ECCFDC018D919C910097A6
:1002F00039F0DC01ED91FC910280F381E02D09944D
:10030000089587FF27C02C9A2B9A2B9886FF24C02C
:100310002C9A2B9A2B9885FF21C02C9A2B9A2B98DC
:1003200084FF1EC02C9A2B9A2B9883FF1BC02C9AFB
:100330002B9A2B9882FF18C02C9A2B9A2B9881FF0E
:1003400015C02C9A2B9A2B9880FF12C02C9A2B9AAE
:100350002B9808952C98D8CF2C98DBCF2C98DECFF3
:100360002C98E1CF2C98E4CF2C98E7CF2C98EACFAB
:100370002C98EDCFDC018D919C91009739F0DC0138
:10038000ED91FC910190F081E02D0994089587FF93
:1003900027C02A9A2B9A2B9886FF24C02A9A2B9A38
:1003A0002B9885FF21C02A9A2B9A2B9884FF1EC078
:1003B0002A9A2B9A2B9883FF1BC02A9A2B9A2B9848
:1003C00082FF18C02A9A2B9A2B9881FF15C02A9A6F
:1003D0002B9A2B9880FF12C02A9A2B9A2B9808955B
:1003E0002A98D8CF2A98DBCF2A98DECF2A98E1CF57
:1003F0002A98E4CF2A98E7CF2A98EACF2A98EDCF17
:100400000F931F93CF93DF93EB018C01015F1F4F7D
:10041000C8010E94BA0180E00E94810180E00E9430
:10042000810180E00E94810180E00E9481018C8135
:100430009D81181619060CF054C08FEF0E9481019F
:10044000E881F9812081222321F03E81230F08F4E5
:100450002FEF3C85239F020E20E0211D1124822FC7
:100460000E948101E881F9812181222321F03F81CD
:10047000230F08F42FEF3D85239F020E20E0211D5E
:100480001124822F0E948101E881F9812281222397
:1004900021F03885230F08F42FEF3E85239F020EAD
:1004A00020E0211D1124822F0E94810189859E81D7
:1004B000891B8E838A859F81891B8F838B85988575
:1004C000891B88872F8588819981820F911D27FD3F
:1004D0009A95998388838C819D8101979D838C83D4
:1004E000A6CF0A80DB81C02DD7FD6F9685E0D5951C
:1004F000C7958A95E1F78FEF0E94810180E00E9405
:10050000810180E00E94810180E00E9481012197A9
:1005100090F7C801DF91CF911F910F910C94740156
:10052000249A239A0F960C9474010F931F93CF93E0
:10053000DF93EB018C01015F1F4FC8010E94BA01DC
:1005400080E00E94C70180E00E94C70180E00E9415
:10055000C70180E00E94C7018C819D811816190691
:100560000CF054C08FEF0E94C701E881F98120810F
:10057000222321F03E81230F08F42FEF3C85239F97
:10058000020E20E0211D1124822F0E94C701E88164
:10059000F9812181222321F03F81230F08F42FEFDD
:1005A0003D85239F020E20E0211D1124822F0E94F1
:1005B000C701E881F9812281222321F03885230FA8
:1005C00008F42FEF3E85239F020E20E0211D112409
:1005D000822F0E94C70189859E81891B8E838A850F
:1005E0009F81891B8F838B859885891B88872F85A1
:1005F00088819981820F911D27FD9A95998388831F
:100600008C819D8101979D838C83A6CF0A80DB819D
:10061000C02DD7FD6F9685E0D595C7958A95E1F7F2
:100620008FEF0E94C70180E00E94C70180E00E9416
:10063000C70180E00E94C701219790F7C801DF91B0
:10064000CF911F910F910C947401229A239A0F96C7
:100650000C9474010F931F93CF93DF93CDB7DEB744
:1006600062970FB6F894DEBF0FBECDBF8C01F901C3
:10067000DC011C968C917A8369835C834B835E8357
:100680004D8390819D8791819E8792819F87813044
:10069000F1F4CE0101960E94350183E0888B1A8A1D
:1006A000198AD801ED91FC910484F585E02DBE01F5
:1006B0006F5F7F4FC801099562960FB6F894DEBF51
:1006C0000FBECDBFDF91CF911F910F9108951C8672
:1006D0001B861A86198618861F82DFCF0F931F93F9
:1006E000CF93DF93CDB7DEB762970FB6F894DEBF36
:1006F0000FBECDBF8C01F901DC011C968C917A8371
:1007000069835C834B835E834D8390819D87918158
:100710009E8792819F878130E9F4CE0101960E94E5
:100720003501188A1A8A198AD801ED91FC9104843E
:10073000F585E02DBE016F5F7F4FC8010995629678
:100740000FB6F894DEBF0FBECDBFDF91CF911F91E2
:100750000F9108951C861B861A86198618861F829B
:10076000E0CF90E080E00895FC01858596850895AE
:10077000CF93DF9300D000D000D0CDB7DEB7AB0170
:100780001C821D821E82DC01ED91FC910190F081A2
:10079000E02D19821A821B829E012F5F3F4FBE01FE
:1007A0006C5F7F4F099526960FB6F894DEBF0FBE9B
:1007B000CDBFDF91CF910895FC0184E091E091835A
:1007C0008083138212828FEF86838783808781875D
:1007D0008287838781E08487168615861582148236
:1007E0008091780190917901892B21F4F09379011E
:1007F000E0937801A0913401B0913501109721F078
:100800001596FC93EE931497F0933501E093340121
:1008100008951F920F920FB60F9211242F933F93BA
:100820008F939F93AF93BF9380913801909139013B
:10083000A0913A01B0913B013091370123E0230FA1
:100840002D3758F50196A11DB11D209337018093D6
:10085000380190933901A0933A01B0933B01809104
:100860003C0190913D01A0913E01B0913F01019664
:10087000A11DB11D80933C0190933D01A0933E01C9
:10088000B0933F01BF91AF919F918F913F912F9175
:100890000F900FBE0F901F90189526E8230F029619
:1008A000A11DB11DD2CFEBEDF1E08FEF808312825D
:1008B0001182148613868FEF9FEFDC018783908768
:1008C000A187B287089580917E0190917F019093D6
:1008D00086018093850108950E9453040C9463045B
:1008E000CF93DF9300D000D0CDB7DEB70E94A10038
:1008F00080915101811111C080E491E00E94DC03DC
:1009000084E191E090934101809340011092500165
:1009100010924F0181E08093510161EB71E080E41E
:1009200091E00E945F0080916A01811111C089E508
:1009300091E00E94DC0386E291E090935A0180935B
:100940005901109269011092680181E080936A0157
:1009500067E871E089E591E00E945F001092D9019B
:100960001092AE011092AF018FEF8093B001109200
:10097000D8018093DA018BE190E090937F0180931E
:100980007E0180E790E0909383018093820182E072
:1009900090E0909381018093800188EE282E83E07F
:1009A000382E90E0A92E90E0B92E8091D801909138
:1009B000D9012091DA01E1EBF1E020839183828378
:1009C000339631E0E83DF307C1F78091AE01909195
:1009D000AF012091B001E7E8F1E0208391838283A9
:1009E0003396A1E0EE3AFA07C1F7F0908501F09254
:1009F000DB018091DE019091DF01A091E001B091D7
:100A0000E101892B8A2B8B2BD9F00E94DC0000910D
:100A10007A0110917B0120917C0130917D01601B56
:100A2000710B820B930B0091DE011091DF0120917D
:100A3000E0013091E1016017710782079307C8F266
:100A40000E94DC0060937A0170937B0180937C01AB
:100A500090937D01E091E601F091E701309759F024
:100A60004091E2015091E3016091E4017091E50150
:100A70008F2D0995F82E00917801109179014F2C56
:100A8000512C712C612C0115110509F45FC0F8017E
:100A9000F485FC838091DC019091DD018436910521
:100AA00018F4D8011C961C92D801ED91FC9182801B
:100AB000938019821A821B82FF2089F1F8013696F1
:100AC000D12CC12C2191222319F1E280EE2001F1D9
:100AD00030E050E040E02F5F3F4F4F4F5F4FC3018A
:100AE000B2010E941C069B01AC018E2D90E0B0E08B
:100AF000A0E0BC01CD016F5F7F4F8F4F9F4F0E94E1
:100B00001C06A1E0B0E0AC0FBD1FAC0DBD1D8C9369
:100B1000BFEFCB1ADB0A33E0C316D10499F6D80134
:100B20001D964D915C911E9712966D917C919E0140
:100B30002F5F3F4FC801F4010995EC81D8011C9645
:100B4000EC931C9714960D911C919DCF809176018A
:100B5000909177018C010F5F1F4F109377010093E5
:100B6000760149977CF10E9429019B01AC01029D0D
:100B7000B001039D700D129D700D1124072E000C05
:100B8000880B990BC0907201D0907301E0907401B2
:100B9000F09075012C193D094E095F090E9440062D
:100BA0003093DD012093DC011092770110927601E1
:100BB0000E94290160937201709373018093740104
:100BC0009093750180918501909186012091840117
:100BD00021111EC020918201309183018217930759
:100BE0005CF42091800130918101820F931F9093DA
:100BF00086018093850103C0F1E0F09384010E9497
:100C00000101A114B10409F4D0CE0E940000CDCEA0
:100C100020917E0130917F01281739073CF4209103
:100C2000800130918101821B930BE1CF10928401EE
:100C3000E6CFF8940C94B506DB018F939F930E9446
:100C40008106BF91AF91A29F800D911DA39F900D32
:100C5000B29F900D1124089597FB072E16F400946F
:100C600007D077FD09D00E948C0607FC05D03EF422
:100C7000909581959F4F0895709561957F4F089548
:100C8000A1E21A2EAA1BBB1BFD010DC0AA1FBB1F90
:100C9000EE1FFF1FA217B307E407F50720F0A21B02
:100CA000B30BE40BF50B661F771F881F991F1A946F
:100CB00069F760957095809590959B01AC01BD0199
:100CC000CF010895052E97FB1EF400940E9479062B
:100CD00057FD07D00E94400607FC03D04EF40C9449
:100CE000790650954095309521953F4F4F4F5F4F76
:100CF000089590958095709561957F4F8F4F9F4F88
:100D000008950E94A606A59F900DB49F900DA49FE4
:100D1000800D911D11240895AA1BBB1B51E107C032
:100D2000AA1FBB1FA617B70710F0A61BB70B881F7B
:100D3000991F5A95A9F780959095BC01CD0108950A
:100D4000EE0FFF1F0590F491E02D0994A29FB001D2
:100D5000B39FC001A39F700D811D1124911DB29FEF
:0E0D6000700D811D1124911D0895F894FFCF90
:100D6E0000000000A000A000A000B803B403B1036F
:100D7E00000000006E032A039002B803B403B1030F
:100D8E000002000000006E032A032503B803B4031B
:040D9E00B103950206
:00000001FF
