:100000000C9435000C945D000C945D000C945D0024
:100010000C945D000C945D000C945D000C945D00EC
:100020000C945D000C945D000C945D000C945D00DC
:100030000C945D000C945D000C945D000C945D00CC
:100040000C947B060C945D000C9441060C940606FF
:100050000C945D000C945D000C945D000C945D00AC
:100060000C945D000C945D00100711241FBECFEFAF
:10007000D8E0DEBFCDBF11E0A0E0B1E0E4E7F2E1FF
:1000800002C005900D92A035B107D9F722E0A0E596
:10009000B1E001C01D92A937B207E1F710E0C5E356
:1000A000D0E004C02197FE010E942309C433D10788
:1000B000C9F70E9414070C949C080C940000CF937D
:1000C000DF93EC01E881F9810480F581E02D099549
:1000D00087E192E09B838A838DE090E09E878D8705
:1000E000E881F9810284F385E02DCE01099500971E
:1000F00001F19C0150E040E060E472E48FE090E0A8
:100100000E94E5088091690290916A02A0916B02B9
:10011000B0916C0282179307A407B50710F4DA01B7
:10012000C9018093690290936A02A0936B02B09315
:100130006C02CE01DF91CF910895CF93DF93FC0144
:1001400026853785D901A05CBF4F8D919C91119771
:1001500001968F739927E901CE5BDF4F4881598162
:1001600048175907D9F34D915C91240F351FD901D8
:100170006C93A685B785A05CBF4F11969C938E9318
:10018000A689B7898C91978D21E030E001C0220FBC
:100190009A95EAF7822B8C9381E081A30488F589F4
:1001A000E02D80818064808381E090E0DF91CF91B9
:1001B0000895FC0191A1992329F0A489B5898C9116
:1001C00086FFF9CF11A20895DC011C968D919C91B8
:1001D000FC01E05CFF4F40815181329620813181EA
:1001E0004217530781F020813181820F931FDC0178
:1001F0008C91208131812F5F3F4F2F7333273183C3
:10020000208390E008958FEF9FEF0895FC0184858F
:100210009585FC01E05CFF4F408151813296208141
:1002200031814217530741F020813181820F931FA2
:10023000FC01808190E008958FEF9FEF0895FC010D
:1002400024853585F901E05CFF4F808191812E5B2B
:100250003F4FF90120813181821B930B8F739927C6
:1002600008958EE392E00C941F010895CF92DF92DF
:10027000EF92FF920F931F93CF93DF936C01EB01EB
:100280007B01E40EF51E10E000E0CE15DF0561F005
:100290006991D601ED91FC910190F081E02DC601AC
:1002A0000995080F191FF1CFC801DF91CF911F9158
:1002B0000F91FF90EF90DF90CF900895789484B5E0
:1002C000826084BD84B5816084BD85B5826085BD52
:1002D00085B5816085BDEEE6F0E080818160808338
:1002E000E1E8F0E01082808182608083808181601B
:1002F0008083E0E8F0E0808181608083E1EBF0E0E2
:10030000808184608083E0EBF0E080818160808385
:10031000EAE7F0E08081846080838081826080836E
:100320008081816080838081806880831092C10099
:1003300008953FB7F8948091580190915901A09188
:100340005A01B0915B0126B5A89B05C02F3F19F05B
:100350000196A11DB11D3FBFBA2FA92F982F882745
:10036000BC01CD01620F711D811D911D42E0660F20
:10037000771F881F991F4A95D1F70895CF92DF9272
:10038000EF92FF92CF93DF930E949901EB0184E1FA
:10039000C82ED12CE12CF12C0E9499016C1B7D0BF5
:1003A000683E7340C8F381E0C81AD108E108F1083B
:1003B000C851DC4FC114D104E104F10469F7DF91A5
:1003C000CF91FF90EF90DF90CF9008952FB7F894E2
:1003D000609154017091550180915601909157019F
:1003E0002FBF08954F925F926F927F929F92AF922C
:1003F000BF92CF92DF92EF92FF920F931F93CF9312
:10040000DF9300D01F92CDB7DEB7F82E809169023E
:1004100090916A02A0916B02B0916C02892B8A2B99
:100420008B2BD9F00E9499010091750210917602F0
:100430002091770230917802601B710B820B930B35
:100440000091690210916A0220916B0230916C0256
:100450006017710782079307C8F20E9499016093A1
:100460007502709376028093770290937802E09100
:100470007102F0917202309759F040916D025091E3
:100480006E0260916F02709170028F2D0995F82EA7
:1004900000917302109174024F2C512C712C612C1D
:1004A0000115110509F45EC0D8011C96EC901C974B
:1004B00080916702909168028436910510F41C9631
:1004C0001C92D801ED91FC91A280B38019821A820E
:1004D0001B82FF2089F1F8013696D12CC12C219185
:1004E000222319F19280992001F130E050E040E0A0
:1004F0002F5F3F4F4F4F5F4FC301B2010E949F08D4
:100500009B01AC01892D90E0B0E0A0E0BC01CD01E1
:100510006F5F7F4F8F4F9F4F0E949F08A1E0B0E019
:10052000AC0FBD1FAC0DBD1D8C93BFEFCB1ADB0A0A
:1005300083E0C816D10499F6D8011D964D915C91BF
:100540001E9712966D917C919E012F5F3F4FC801BF
:10055000F5010995D8011C96EC921C9714960D9103
:100560001C919ECF80916402909165028C010F5F77
:100570001F4F109365020093640249978CF10E940B
:10058000E6019B01AC0188EE93E0089FB001099F52
:10059000700D189F700D1124072E000C880B990BFD
:1005A000C0906002D0906102E0906202F09063021D
:1005B0002C193D094E095F090E94C3083093680257
:1005C0002093670210926502109264020E94E60175
:1005D0006093600270936102809362029093630261
:1005E0000F900F900F90DF91CF911F910F91FF907F
:1005F000EF90DF90CF90BF90AF909F907F906F90E3
:100600005F904F9008950F931F93CF93DF932091A6
:1006100052012F5F322F37703093520120FF2BC0D1
:1006200020E831FD2064347009F02062205FFC0175
:10063000EC01239600E011E064856623F1F070E0A0
:10064000C8010E94AF086F5F6187322F369F030E8B
:1006500030E0311D1124311112C01682662311F0D1
:10066000615061873196EC17FD0731F7DF91CF912B
:100670001F910F91089520E0D4CF60E0E5CF315075
:100680003683ECCFDC018D919C91009739F0DC0131
:10069000ED91FC910280F381E02D0994089587FF8C
:1006A00027C02C9A2B9A2B9886FF24C02C9A2B9A21
:1006B0002B9885FF21C02C9A2B9A2B9884FF1EC063
:1006C0002C9A2B9A2B9883FF1BC02C9A2B9A2B9831
:1006D00082FF18C02C9A2B9A2B9881FF15C02C9A58
:1006E0002B9A2B9880FF12C02C9A2B9A2B98089546
:1006F0002C98D8CF2C98DBCF2C98DECF2C98E1CF3C
:100700002C98E4CF2C98E7CF2C98EACF2C98EDCFFB
:10071000DC018D919C91009739F0DC01ED91FC9109
:100720000190F081E02D0994089587FF27C02A9A4F
:100730002B9A2B9886FF24C02A9A2B9A2B9885FFF8
:1007400021C02A9A2B9A2B9884FF1EC02A9A2B9A92
:100750002B9883FF1BC02A9A2B9A2B9882FF18C0D4
:100760002A9A2B9A2B9881FF15C02A9A2B9A2B989C
:1007700080FF12C02A9A2B9A2B9808952A98D8CFD6
:100780002A98DBCF2A98DECF2A98E1CF2A98E4CFA7
:100790002A98E7CF2A98EACF2A98EDCF0F931F9394
:1007A000CF93DF93EB018C01015F1F4FC8010E94C3
:1007B000880380E00E944F0380E00E944F0380E0A6
:1007C0000E944F0380E00E944F038C819D81181688
:1007D00019060CF054C08FEF0E944F03E881F98195
:1007E0002081222321F03E81230F08F42FEF3C8546
:1007F000239F020E20E0211D1124822F0E944F030F
:10080000E881F9812181222321F03F81230F08F41F
:100810002FEF3D85239F020E20E0211D1124822F02
:100820000E944F03E881F9812281222321F038853B
:10083000230F08F42FEF3E85239F020E20E0211D99
:100840001124822F0E944F0389859E81891B8E83EC
:100850008A859F81891B8F838B859885891B8887D3
:100860002F8588819981820F911D27FD9A95998303
:1008700088838C819D8101979D838C83A6CF0A807C
:10088000DB81C02DD7FD6F9685E0D595C7958A95FC
:10089000E1F78FEF0E944F0380E00E944F0380E05A
:1008A0000E944F0380E00E944F03219790F7C801F8
:1008B000DF91CF911F910F910C944203249A239AB8
:1008C0000F960C9442030F931F93CF93DF93EB018A
:1008D0008C01015F1F4FC8010E94880380E00E94C5
:1008E000950380E00E94950380E00E94950380E0DC
:1008F0000E9495038C819D81181619060CF054C036
:100900008FEF0E949503E881F9812081222321F055
:100910003E81230F08F42FEF3C85239F020E20E039
:10092000211D1124822F0E949503E881F9812181E4
:10093000222321F03F81230F08F42FEF3D85239FD1
:10094000020E20E0211D1124822F0E949503E881D0
:10095000F9812281222321F03885230F08F42FEF1B
:100960003E85239F020E20E0211D1124822F0E942C
:10097000950389859E81891B8E838A859F81891B2A
:100980008F838B859885891B88872F85888199819E
:10099000820F911D27FD9A95998388838C819D8173
:1009A00001979D838C83A6CF0A80DB81C02DD7FD64
:1009B0006F9685E0D595C7958A95E1F78FEF0E94F0
:1009C000950380E00E94950380E00E94950380E0FB
:1009D0000E949503219790F7C801DF91CF911F9155
:1009E0000F910C944203229A239A0F960C9442037F
:1009F0000F931F93CF93DF93CDB7DEB762970FB6F8
:100A0000F894DEBF0FBECDBF8C01F901DC011C964E
:100A10008C917A8369835C834B835E834D83908161
:100A20009D8791819E8792819F878130F1F4CE01CD
:100A300001960E94030383E0888B1A8A198AD801E1
:100A4000ED91FC910484F585E02DBE016F5F7F4F31
:100A5000C801099562960FB6F894DEBF0FBECDBFF0
:100A6000DF91CF911F910F9108951C861B861A86E6
:100A7000198618861F82DFCF0F931F93CF93DF93C2
:100A8000CDB7DEB762970FB6F894DEBF0FBECDBF0D
:100A90008C01F901DC011C968C917A8369835C835B
:100AA0004B835E834D8390819D8791819E87928148
:100AB0009F878130E9F4CE0101960E940303188AD2
:100AC0001A8A198AD801ED91FC910484F585E02DEC
:100AD000BE016F5F7F4FC801099562960FB6F8940B
:100AE000DEBF0FBECDBFDF91CF911F910F91089553
:100AF0001C861B861A86198618861F82E0CFE7E1BE
:100B0000F2E03AEF2081239F020E20E0211D208396
:100B10002181239F020E20E0211D21832281239F1A
:100B2000020E20E0211D22831124339682E0EE3351
:100B3000F80741F7089590E080E00895FC0185856D
:100B400096850895CF93DF9300D000D000D0CDB725
:100B5000DEB7AB011C821D821E82DC01ED91FC918F
:100B60000190F081E02D19821A821B829E012F5F75
:100B70003F4FBE016C5F7F4F099526960FB6F894E4
:100B8000DEBF0FBECDBFDF91CF910895FC0184E0A1
:100B900091E091838083138212828FEF8683878313
:100BA000808781878287838781E084871686158680
:100BB000158214828091730290917402892B21F422
:100BC000F0937402E0937302A0915001B09151012F
:100BD000109721F01596FC93EE931497F093510122
:100BE000E09350010895FC0101900020E9F731974E
:100BF000AF01481B590BE0913E02F0913F02028089
:100C0000F381E02DBC018EE392E009941F920F92D4
:100C10000FB60F9211242F933F938F939F93EF93CF
:100C2000FF932091CF013091D0018091D10190911B
:100C3000D2012817390781F48091C1008F7D8093FC
:100C4000C100FF91EF919F918F913F912F910F9054
:100C50000FBE0F901F901895E091D101F091D20135
:100C6000E157FE4F20818091D1019091D2010196F0
:100C70008F7399279093D2018093D1012093C6005E
:100C8000E0CF1F920F920FB60F9211242F934F9324
:100C90005F938F939F93EF93FF938091C00082FDAA
:100CA00027C02091C60080911302909114024091B8
:100CB00015025091160201968F739927481759070C
:100CC00059F0E0911302F0911402ED52FE4F20838F
:100CD0009093140280931302FF91EF919F918F9153
:100CE0005F914F912F910F900FBE0F901F9018950D
:100CF0008091C600F1CF1F920F920FB60F92112470
:100D00002F933F938F939F93AF93BF938091540101
:100D100090915501A0915601B09157013091530126
:100D200023E0230F2D3758F50196A11DB11D209307
:100D300053018093540190935501A0935601B093B1
:100D400057018091580190915901A0915A01B09199
:100D50005B010196A11DB11D80935801909359012B
:100D6000A0935A01B0935B01BF91AF919F918F9176
:100D70003F912F910F900FBE0F901F90189526E86E
:100D8000230F0296A11DB11DD2CFE6E6F2E08FEF50
:100D9000808312821182148613868FEF9FEFDC010D
:100DA00087839087A187B2870895EEE3F2E01382EC
:100DB000128288EE93E0A0E0B0E084839583A6835E
:100DC000B78388E391E09183808383ED91E09587F9
:100DD00084878FE891E09787868785EC90E0918BF8
:100DE000808B84EC90E0938B828B80EC90E0958BF1
:100DF000848B81EC90E0978B868B82EC90E0918FD6
:100E0000808F86EC90E0938F828F84E0848F83E0E4
:100E1000858F87E0868F85E0878F81E080A30895A6
:100E20000E94C5060C94D5060E945E01E091520214
:100E3000F09153021082E0914E02F0914F02108225
:100E4000E0915002F091510280E1808310925F02A4
:100E5000E0915402F0915502208130915A0281E0D4
:100E600090E0AC0101C0440F3A95EAF7242B2083AF
:100E7000E0915402F0915502208130915B02AC0167
:100E800001C0440F3A95EAF7242B2083E0915402E5
:100E9000F0915502208130915C02AC0101C0440FF9
:100EA0003A95EAF7242B2083E0915402F091550201
:100EB000208130915D0201C0880F3A95EAF7809554
:100EC0008223808384E491E00E94F305E0913E0256
:100ED000F0913F020190F081E02D6DE08EE392E011
:100EE0000995E0913E02F0913F020190F081E02DE2
:100EF0006AE08EE392E0099580916D01811111C045
:100F00008CE591E00E94C60584E191E090935D013B
:100F100080935C0110926C0110926B0181E08093D0
:100F20006D018CE591E00E945F0080918601811146
:100F300011C085E791E00E94C60586E291E090939A
:100F4000760180937501109285011092840181E0F1
:100F50008093860185E791E00E945F0084E580939D
:100F6000660285E5E82EB12C9BEAF92E1AEA20EFFD
:100F7000822E21E0922E8EE491E00E94F305C7E1DB
:100F8000D2E06E0130918E0181E0830F80938E015B
:100F9000932F990F990F990F292F4E2D249F020EF1
:100FA00020E0211D1124822F232F2074432F407213
:100FB00037FD5BC0211147C0411106C0982F9095A5
:100FC000382F892F90E004C035E5380F90E08BEA88
:100FD000F601808331839283809166020E94F20140
:100FE0000E947F050E94BE01F3E0CF0ED11C4EE3AC
:100FF000C41642E0D40609F0C5CF8EE491E00E9409
:10100000F30530918E0181E0830F80938E01932F41
:10101000990F990F990F292F4E2D249F020E20E032
:10102000211D1124822F232F2074432F407237FD5E
:1010300064C0211150C0411137C0982F9095382FAE
:10104000892F90E035C041110BC0292F219F020E3E
:1010500020E0211D11249F2D921B3AEA380FB1CFB9
:10106000382F3095982F80E0B3CF211111C0411156
:101070000BC0292F219F020E20E0211D11243F2D9E
:10108000321B95E5920FEFCF982F909530E0A0CFCF
:10109000411106C025E5280F9F2D981B822FF6CF02
:1010A0002AEA280F9E2DF9CF35E5380F90E08BEA1C
:1010B0008CA33DA39EA3809166020E94F2010E9430
:1010C0007F050E94BE0123978C169D0609F099CFDB
:1010D0000E94310150CF41110BC0292F219F020ED8
:1010E00020E0211D11249F2D921B3AEA380FA8CF32
:1010F000382F3095982F80E0DBCF211111C041119E
:101100000BC0292F219F020E20E0211D11243F2D0D
:10111000321B95E5920FEFCF982F909530E0C8CF16
:10112000411106C025E5280F9F2D981B822FF6CF71
:101130002AEA280F9E2DF9CFF8940C943809DB0188
:101140008F939F930E940409BF91AF91A29F800D3E
:10115000911DA39F900DB29F900D1124089597FBB0
:10116000072E16F4009407D077FD09D00E940F09CE
:1011700007FC05D03EF4909581959F4F089570959A
:1011800061957F4F0895A1E21A2EAA1BBB1BFD019A
:101190000DC0AA1FBB1FEE1FFF1FA217B307E40756
:1011A000F50720F0A21BB30BE40BF50B661F771FAE
:1011B000881F991F1A9469F760957095809590958E
:1011C0009B01AC01BD01CF010895052E97FB1EF4D4
:1011D00000940E94FC0857FD07D00E94C30807FC3A
:1011E00003D04EF40C94FC08509540953095219511
:1011F0003F4F4F4F5F4F0895909580957095619543
:101200007F4F8F4F9F4F08950E942909A59F900DF2
:10121000B49F900DA49F800D911D11240895AA1BC9
:10122000BB1B51E107C0AA1FBB1FA617B70710F0D1
:10123000A61BB70B881F991F5A95A9F78095909503
:10124000BC01CD010895EE0FFF1F0590F491E02D34
:101250000994A29FB001B39FC001A39F700D811D8F
:101260001124911DB29F700D811D1124911D0895AF
:04127000F894FFCF20
:1012740000000000350135013501A2059E059B05DE
:10128400000000003C05F8045E04A2059E059B05D1
:10129400CE03000000003C05F804F304A2059E05FB
:1012A4009B056304000000009D0036011F01E4005B
:1012B4000601D900726573657474696E67007800FD
:00000001FF
