:100000000C9435000C945D000C945D000C945D0024
:100010000C945D000C945D000C945D000C945D00EC
:100020000C945D000C945D000C945D000C945D00DC
:100030000C945D000C945D000C945D000C945D00CC
:100040000C941B050C945D000C945D000C945D00F9
:100050000C945D000C945D000C945D000C945D00AC
:100060000C945D000C945D00650511241FBECFEF5C
:10007000D8E0DEBFCDBF11E0A0E0B1E0EEEFFEE0E2
:1000800002C005900D92A433B107D9F721E0A4E393
:10009000B1E001C01D92A93EB207E1F710E0C5E34F
:1000A000D0E004C02197FE010E946807C433D10745
:1000B000C9F70E9475050C94E1060C9400000F939B
:1000C0001F93CF93DF93EC018B01E881F9810480CA
:1000D000F581E02D09951B830A838DE090E09E87D2
:1000E0008D87E881F9810284F385E02DCE010995A1
:1000F000009701F19C0150E040E060E472E48FE081
:1001000090E00E942A078091DF019091E001A09188
:10011000E101B091E20182179307A407B50710F43B
:10012000DA01C9018093DF019093E001A093E1011E
:10013000B093E201CE01DF91CF911F910F9108950D
:100140000895789484B5826084BD84B5816084BD4F
:1001500085B5826085BD85B5816085BDEEE6F0E040
:10016000808181608083E1E8F0E01082808182609C
:100170008083808181608083E0E8F0E0808181601D
:100180008083E1EBF0E0808184608083E0EBF0E04D
:10019000808181608083EAE7F0E0808184608083F1
:1001A000808182608083808181608083808180689B
:1001B00080831092C10008953FB7F89480913C016C
:1001C00090913D01A0913E01B0913F0126B5A89BC1
:1001D00005C02F3F19F00196A11DB11D3FBFBA2FD9
:1001E000A92F982F8827BC01CD01620F711D811D99
:1001F000911D42E0660F771F881F991F4A95D1F71E
:100200000895CF92DF92EF92FF92CF93DF930E94F7
:10021000DC00EB0182E3C82ED12CE12CF12C0E94F2
:10022000DC006C1B7D0B683E7340C8F381E0C81A8C
:10023000D108E108F108C851DC4FC114D104E10430
:10024000F10469F7DF91CF91FF90EF90DF90CF90AD
:1002500008952FB7F8946091380170913901809119
:100260003A0190913B012FBF08954F925F926F9298
:100270007F929F92AF92BF92CF92DF92EF92FF92C6
:100280000F931F93CF93DF9300D01F92CDB7DEB7AC
:10029000F090DC018091DF019091E001A091E101FB
:1002A000B091E201892B8A2B8B2BD9F00E94DC00C4
:1002B0000091D8011091D9012091DA013091DB0130
:1002C000601B710B820B930B0091DF011091E00119
:1002D0002091E1013091E2016017710782079307D5
:1002E000C8F20E94DC006093D8017093D90180931A
:1002F000DA019093DB01E091E701F091E80130979A
:1003000059F04091E3015091E4016091E501709151
:10031000E6018F2D0995F82E0091D6011091D70195
:100320004F2C512C712C612C0115110509F45EC064
:10033000D8011C96EC901C978091DD019091DE0114
:100340008436910510F41C961C92D801ED91FC9115
:10035000A280B38019821A821B82FF2089F1F801E2
:100360003696D12CC12C2191222319F1928099200B
:1003700001F130E050E040E02F5F3F4F4F4F5F4FC3
:10038000C301B2010E94E4069B01AC01892D90E0FB
:10039000B0E0A0E0BC01CD016F5F7F4F8F4F9F4F5A
:1003A0000E94E406A1E0B0E0AC0FBD1FAC0DBD1D86
:1003B0008C93BFEFCB1ADB0A83E0C816D10499F601
:1003C000D8011D964D915C911E9712966D917C916E
:1003D0009E012F5F3F4FC801F5010995D8011C967A
:1003E000EC921C9714960D911C919ECF8091D40194
:1003F0009091D5018C010F5F1F4F1093D501009391
:10040000D40149978CF10E9429019B01AC0188EE2F
:1004100093E0089FB001099F700D189F700D112483
:10042000072E000C880B990BC090D001D090D10101
:10043000E090D201F090D3012C193D094E095F09DB
:100440000E9408073093DE012093DD011092D50150
:100450001092D4010E9429016093D0017093D101C0
:100460008093D2019093D3010F900F900F90DF9162
:10047000CF911F910F91FF90EF90DF90CF90BF90A1
:10048000AF909F907F906F905F904F9008950F93E3
:100490001F93CF93DF93209136012F5F322F377058
:1004A0003093360120FF2BC020E831FD20643470EA
:1004B00009F02062205FFC01EC01239600E011E0CE
:1004C00064856623F1F070E0C8010E94F4066F5F56
:1004D0006187322F369F030E30E0311D1124311118
:1004E00012C01682662311F0615061873196EC17B5
:1004F000FD0731F7DF91CF911F910F91089520E013
:10050000D4CF60E0E5CF31503683ECCFDC018D9164
:100510009C91009739F0DC01ED91FC910280F38110
:10052000E02D0994089587FF27C02C9A2B9A2B98C9
:1005300086FF24C02C9A2B9A2B9885FF21C02C9AD9
:100540002B9A2B9884FF1EC02C9A2B9A2B9883FFF2
:100550001BC02C9A2B9A2B9882FF18C02C9A2B9A8E
:100560002B9881FF15C02C9A2B9A2B9880FF12C0D4
:100570002C9A2B9A2B9808952C98D8CF2C98DBCFB7
:100580002C98DECF2C98E1CF2C98E4CF2C98E7CF95
:100590002C98EACF2C98EDCFDC018D919C9100979F
:1005A00039F0DC01ED91FC910190F081E02D09948E
:1005B000089587FF27C02A9A2B9A2B9886FF24C07C
:1005C0002A9A2B9A2B9885FF21C02A9A2B9A2B982E
:1005D00084FF1EC02A9A2B9A2B9883FF1BC02A9A4D
:1005E0002B9A2B9882FF18C02A9A2B9A2B9881FF5E
:1005F00015C02A9A2B9A2B9880FF12C02A9A2B9A00
:100600002B9808952A98D8CF2A98DBCF2A98DECF46
:100610002A98E1CF2A98E4CF2A98E7CF2A98EACF00
:100620002A98EDCF0F931F93CF93DF93EB018C01AB
:10063000015F1F4FC8010E94CC0280E00E9493021C
:1006400080E00E94930280E00E94930280E00E947A
:1006500093028C819D81181619060CF054C08FEFFF
:100660000E949302E881F9812081222321F03E81BA
:10067000230F08F42FEF3C85239F020E20E0211D5D
:100680001124822F0E949302E881F9812181222383
:1006900021F03F81230F08F42FEF3D85239F020EA9
:1006A00020E0211D1124822F0E949302E881F9810C
:1006B0002281222321F03885230F08F42FEF3E8575
:1006C000239F020E20E0211D1124822F0E949302FD
:1006D00089859E81891B8E838A859F81891B8F8353
:1006E0008B859885891B88872F8588819981820FC2
:1006F000911D27FD9A95998388838C819D8101970F
:100700009D838C83A6CF0A80DB81C02DD7FD6F9699
:1007100085E0D595C7958A95E1F78FEF0E94930202
:1007200080E00E94930280E00E94930280E00E9499
:100730009302219790F7C801DF91CF911F910F91FC
:100740000C948602249A239A0F960C9486020F9397
:100750001F93CF93DF93EB018C01015F1F4FC80103
:100760000E94CC0280E00E94D90280E00E94D9025F
:1007700080E00E94D90280E00E94D9028C819D8194
:10078000181619060CF054C08FEF0E94D902E881A8
:10079000F9812081222321F03E81230F08F42FEFDD
:1007A0003C85239F020E20E0211D1124822F0E94F0
:1007B000D902E881F9812181222321F03F81230F91
:1007C00008F42FEF3D85239F020E20E0211D112408
:1007D000822F0E94D902E881F9812281222321F00F
:1007E0003885230F08F42FEF3E85239F020E20E06B
:1007F000211D1124822F0E94D90289859E81891B87
:100800008E838A859F81891B8F838B859885891B21
:1008100088872F8588819981820F911D27FD9A9560
:10082000998388838C819D8101979D838C83A6CF3A
:100830000A80DB81C02DD7FD6F9685E0D595C795E1
:100840008A95E1F78FEF0E94D90280E00E94D902D9
:1008500080E00E94D90280E00E94D902219790F79F
:10086000C801DF91CF911F910F910C948602229ABB
:10087000239A0F960C9486020F931F93CF93DF93C6
:10088000CDB7DEB762970FB6F894DEBF0FBECDBF0F
:100890008C01F901DC011C968C917A8369835C835D
:1008A0004B835E834D8390819D8791819E8792814A
:1008B0009F878130F1F4CE0101960E94470283E0C8
:1008C000888B1A8A198AD801ED91FC910484F585E8
:1008D000E02DBE016F5F7F4FC801099562960FB68C
:1008E000F894DEBF0FBECDBFDF91CF911F910F9166
:1008F00008951C861B861A86198618861F82DFCFEC
:100900000F931F93CF93DF93CDB7DEB762970FB6E8
:10091000F894DEBF0FBECDBF8C01F901DC011C963F
:100920008C917A8369835C834B835E834D83908152
:100930009D8791819E8792819F878130E9F4CE01C6
:1009400001960E944702188A1A8A198AD801ED91E5
:10095000FC910484F585E02DBE016F5F7F4FC801D7
:10096000099562960FB6F894DEBF0FBECDBFDF913A
:10097000CF911F910F9108951C861B861A861986A8
:1009800018861F82E0CF90E080E00895FC01858505
:1009900096850895CF93DF9300D000D000D0CDB7D7
:1009A000DEB7AB011C821D821E82DC01ED91FC9141
:1009B0000190F081E02D19821A821B829E012F5F27
:1009C0003F4FBE016C5F7F4F099526960FB6F89496
:1009D000DEBF0FBECDBFDF91CF910895FC0184E053
:1009E00091E091838083138212828FEF86838783C5
:1009F000808781878287838781E084871686158632
:100A0000158214828091D6019091D701892B21F40F
:100A1000F093D701E093D601A0913401B091350154
:100A2000109721F01596FC93EE931497F0933501EF
:100A3000E093340108951F920F920FB60F92112484
:100A40002F933F938F939F93AF93BF9380913801E0
:100A500090913901A0913A01B0913B013091370159
:100A600023E0230F2D3758F50196A11DB11D2093CA
:100A700037018093380190933901A0933A01B093E4
:100A80003B0180913C0190913D01A0913E01B091CC
:100A90003F010196A11DB11D80933C0190933D0142
:100AA000A0933E01B0933F01BF91AF919F918F9171
:100AB0003F912F910F900FBE0F901F90189526E831
:100AC000230F0296A11DB11DD2CFECEDF1E08FEF07
:100AD000808312821182148613868FEF9FEFDC01D0
:100AE00087839087A187B28708950E94A100809193
:100AF0005101811111C080E491E00E94EE0484E173
:100B000091E0909341018093400110925001109226
:100B10004F0181E0809351016CE971E080E491E044
:100B20000E945F0080916A01811111C089E591E006
:100B30000E94EE0486E291E090935A01809359015D
:100B4000109269011092680181E080936A0162E766
:100B500071E089E591E00E945F0010929901109286
:100B60009A0110929B018FEF8093C3011092C401F0
:100B70001092C5011092C6011092C70180E88093BF
:100B8000C8018AE88093C9018BE28093CA0182EE92
:100B90008093CB0184E68093CC0185E98093CD01DD
:100BA0008DEE8093CE0180E0E82E80E0F82EDD24EB
:100BB000D3948091CF01811185C00CE911E0CCE084
:100BC000D0E08091C3019091C4012091C501F8014A
:100BD00024A395A386A3CC30D10549F08091990137
:100BE00090919A0120919B0127A390A781A70E9431
:100BF00035010E940101219703501109209709F73F
:100C00008091990190919A0120919B0120939F01DD
:100C10009093A0018093A1018091C3019091C401A0
:100C20002091C50120939C0190939D0180939E018A
:100C30000E9435010E9401018091990190919A01D1
:100C400020919B0120939C0190939D0180939E0194
:100C50000E9435010FE611E08091C3019091C4011B
:100C60002091C501F801238394838583209749F05F
:100C70008091990190919A0120919B012083918309
:100C800082830E9435010E94010121960D5F1F4F52
:100C9000CD30D10509F78091990190919A01209169
:100CA0009B012093960190939701809398010E9455
:100CB0003501D092CF01E114F10409F47ACF0E94FA
:100CC000000077CF02E711E0CCE0D0E08091C301D3
:100CD0009091C4012091C501F80124A395A386A396
:100CE000CC30D10549F08091990190919A012091E1
:100CF0009B0127A390A781A70E9435010E940101B3
:100D0000219703501109209709F78091990190913B
:100D10009A0120919B012093750190937601809315
:100D200077018091C3019091C4012091C501209366
:100D3000720190937301809374010E9435010E94A7
:100D400001018091990190919A0120919B0120933A
:100D5000720190937301809374010E94350109E937
:100D600011E08091C3019091C4012091C501F80167
:100D7000238394838583209749F0809199019091F2
:100D80009A0120919B012083918382830E943501E7
:100D90000E94010121960D5F1F4FCD30D10509F74B
:100DA0008091990190919A0120919B012093C0011B
:100DB0009093C1018093C2010E9435011092CF012E
:100DC0007ACFF8940C947D07DB018F939F930E9458
:100DD0004907BF91AF91A29F800D911DA39F900DD8
:100DE000B29F900D1124089597FB072E16F40094DE
:100DF00007D077FD09D00E94540707FC05D03EF4C8
:100E0000909581959F4F0895709561957F4F0895B6
:100E1000A1E21A2EAA1BBB1BFD010DC0AA1FBB1FFE
:100E2000EE1FFF1FA217B307E407F50720F0A21B70
:100E3000B30BE40BF50B661F771F881F991F1A94DD
:100E400069F760957095809590959B01AC01BD0107
:100E5000CF010895052E97FB1EF400940E944107D0
:100E600057FD07D00E94080707FC03D04EF40C94EE
:100E7000410750954095309521953F4F4F4F5F4F1B
:100E8000089590958095709561957F4F8F4F9F4FF6
:100E900008950E946E07A59F900DB49F900DA49F8A
:100EA000800D911D11240895AA1BBB1B51E107C0A1
:100EB000AA1FBB1FA617B70710F0A61BB70B881FEA
:100EC000991F5A95A9F780959095BC01CD01089579
:100ED000EE0FFF1F0590F491E02D0994A29FB00141
:100EE000B39FC001A39F700D811D1124911DB29F5E
:0E0EF000700D811D1124911D0895F894FFCFFF
:100EFE0000000000A000A000A000CA04C604C304A5
:100F0E000000000080043C04A203CA04C604C3040B
:100F1E0012030000000080043C043704CA04C60417
:040F2E00C304A7034E
:00000001FF
