:100000000C9435000C945D000C945D000C945D0024
:100010000C945D000C945D000C945D000C945D00EC
:100020000C945D000C945D000C945D000C945D00DC
:100030000C945D000C945D000C945D000C945D00CC
:100040000C94E1030C945D000C945D000C945D0035
:100050000C945D000C945D000C945D000C945D00AC
:100060000C945D000C945D002B0411241FBECFEF97
:10007000D8E0DEBFCDBF11E0A0E0B1E0E8E8FCE0F1
:1000800002C005900D92A433B107D9F721E0A4E393
:10009000B1E001C01D92AE3DB207E1F710E0C5E34B
:1000A000D0E004C02197FE010E942D06C433D10781
:1000B000C9F70E943B040C94A6050C9400000F9312
:1000C0001F93CF93DF93EC018B01E881F9810480CA
:1000D000F581E02D09951B830A838DE090E09E87D2
:1000E0008D87E881F9810284F385E02DCE010995A1
:1000F000009701F19C0150E040E060E472E48FE081
:1001000090E00E94EF058091D4019091D501A091DB
:10011000D601B091D70182179307A407B50710F451
:10012000DA01C9018093D4019093D501A093D6013F
:10013000B093D701CE01DF91CF911F910F91089518
:10014000789484B5826084BD84B5816084BD85B5B2
:10015000826085BD85B5816085BDEEE6F0E0808179
:1001600081608083E1E8F0E010828081826080839A
:10017000808181608083E0E8F0E08081816080831D
:10018000E1EBF0E0808184608083E0EBF0E080814F
:1001900081608083EAE7F0E08081846080838081F1
:1001A0008260808380818160808380818068808399
:1001B0001092C10008953FB7F8948091CD019091BD
:1001C000CE01A091CF01B091D00126B5A89B05C06A
:1001D0002F3F19F00196A11DB11D3FBFBA2FA92FC6
:1001E000982F8827BC01CD01620F711D811D911DC3
:1001F00042E0660F771F881F991F4A95D1F708952F
:100200002FB7F8946091C9017091CA018091CB0118
:100210009091CC012FBF089508950F931F93CF9312
:10022000DF93209136012F5F322F377030933601E4
:1002300020FF2BC020E831FD2064347009F02062DB
:10024000205FFC01EC01239600E011E06485662349
:10025000F1F070E0C8010E94B9056F5F6187322F2D
:10026000369F030E30E0311D1124311112C0168269
:10027000662311F0615061873196EC17FD0731F765
:10028000DF91CF911F910F91089520E0D4CF60E0CE
:10029000E5CF31503683ECCFDC018D919C910097F6
:1002A00039F0DC01ED91FC910280F381E02D09949D
:1002B000089587FF27C02C9A2B9A2B9886FF24C07D
:1002C0002C9A2B9A2B9885FF21C02C9A2B9A2B982D
:1002D00084FF1EC02C9A2B9A2B9883FF1BC02C9A4C
:1002E0002B9A2B9882FF18C02C9A2B9A2B9881FF5F
:1002F00015C02C9A2B9A2B9880FF12C02C9A2B9AFF
:100300002B9808952C98D8CF2C98DBCF2C98DECF43
:100310002C98E1CF2C98E4CF2C98E7CF2C98EACFFB
:100320002C98EDCFDC018D919C91009739F0DC0188
:10033000ED91FC910190F081E02D0994089587FFE3
:1003400027C02A9A2B9A2B9886FF24C02A9A2B9A88
:100350002B9885FF21C02A9A2B9A2B9884FF1EC0C8
:100360002A9A2B9A2B9883FF1BC02A9A2B9A2B9898
:1003700082FF18C02A9A2B9A2B9881FF15C02A9ABF
:100380002B9A2B9880FF12C02A9A2B9A2B980895AB
:100390002A98D8CF2A98DBCF2A98DECF2A98E1CFA7
:1003A0002A98E4CF2A98E7CF2A98EACF2A98EDCF67
:1003B0000F931F93CF93DF93EB018C01015F1F4FCE
:1003C000C8010E94920180E00E94590180E00E94D1
:1003D000590180E00E94590180E00E9459018C81FE
:1003E0009D81181619060CF054C08FEF0E94590118
:1003F000E881F9812081222321F03E81230F08F436
:100400002FEF3C85239F020E20E0211D1124822F17
:100410000E945901E881F9812181222321F03F8145
:10042000230F08F42FEF3D85239F020E20E0211DAE
:100430001124822F0E945901E881F981228122230F
:1004400021F03885230F08F42FEF3E85239F020EFD
:1004500020E0211D1124822F0E94590189859E814F
:10046000891B8E838A859F81891B8F838B859885C5
:10047000891B88872F8588819981820F911D27FD8F
:100480009A95998388838C819D8101979D838C8324
:10049000A6CF0A80DB81C02DD7FD6F9685E0D5956C
:1004A000C7958A95E1F78FEF0E94590180E00E947D
:1004B000590180E00E94590180E00E945901219772
:1004C00090F7C801DF91CF911F910F910C944C01CF
:1004D000249A239A0F960C944C010F931F93CF9359
:1004E000DF93EB018C01015F1F4FC8010E94920155
:1004F00080E00E949F0180E00E949F0180E00E94B6
:100500009F0180E00E949F018C819D811816190631
:100510000CF054C08FEF0E949F01E881F981208187
:10052000222321F03E81230F08F42FEF3C85239FE7
:10053000020E20E0211D1124822F0E949F01E881DC
:10054000F9812181222321F03F81230F08F42FEF2D
:100550003D85239F020E20E0211D1124822F0E9441
:100560009F01E881F9812281222321F03885230F20
:1005700008F42FEF3E85239F020E20E0211D112459
:10058000822F0E949F0189859E81891B8E838A8587
:100590009F81891B8F838B859885891B88872F85F1
:1005A00088819981820F911D27FD9A95998388836F
:1005B0008C819D8101979D838C83A6CF0A80DB81EE
:1005C000C02DD7FD6F9685E0D595C7958A95E1F743
:1005D0008FEF0E949F0180E00E949F0180E00E94B7
:1005E0009F0180E00E949F01219790F7C801DF9151
:1005F000CF911F910F910C944C01229A239A0F9640
:100600000C944C010F931F93CF93DF93CDB7DEB7BC
:1006100062970FB6F894DEBF0FBECDBF8C01F90113
:10062000DC011C968C917A8369835C834B835E83A7
:100630004D8390819D8791819E8792819F87813094
:10064000F1F4CE0101960E940D0183E0888B1A8A95
:10065000198AD801ED91FC910484F585E02DBE0145
:100660006F5F7F4FC801099562960FB6F894DEBFA1
:100670000FBECDBFDF91CF911F910F9108951C86C2
:100680001B861A86198618861F82DFCF0F931F9349
:10069000CF93DF93CDB7DEB762970FB6F894DEBF86
:1006A0000FBECDBF8C01F901DC011C968C917A83C1
:1006B00069835C834B835E834D8390819D879181A9
:1006C0009E8792819F878130E9F4CE0101960E9436
:1006D0000D01188A1A8A198AD801ED91FC910484B7
:1006E000F585E02DBE016F5F7F4FC80109956296C9
:1006F0000FB6F894DEBF0FBECDBFDF91CF911F9133
:100700000F9108951C861B861A86198618861F82EB
:10071000E0CF90E080E00895FC01858596850895FE
:10072000CF93DF9300D000D000D0CDB7DEB7AB01C0
:100730001C821D821E82DC01ED91FC910190F081F2
:10074000E02D19821A821B829E012F5F3F4FBE014E
:100750006C5F7F4F099526960FB6F894DEBF0FBEEB
:10076000CDBFDF91CF910895FC0184E091E09183AA
:100770008083138212828FEF8683878380878187AD
:100780008287838781E08487168615861582148286
:1007900080916F0190917001892B21F4F093700189
:1007A000E0936F01A0913401B0913501109721F0D1
:1007B0001596FC93EE931497F0933501E093340172
:1007C00008951F920F920FB60F9211242F933F930B
:1007D0008F939F93AF93BF938091C9019091CA016A
:1007E000A091CB01B091CC013091C80123E0230F3F
:1007F0002D3758F50196A11DB11D2093C801809396
:10080000C9019093CA01A093CB01B093CC01809110
:10081000CD019091CE01A091CF01B091D001019670
:10082000A11DB11D8093CD019093CE01A093CF0166
:10083000B093D001BF91AF919F918F913F912F9134
:100840000F900FBE0F901F90189526E8230F029669
:10085000A11DB11DD2CFE1EDF1E08FEF80831282B7
:100860001182148613868FEF9FEFDC0187839087B8
:10087000A187B2870895CF93DF9300D000D0CDB782
:10088000DEB70E94A00080914801811111C087E36A
:1008900091E00E94B40384E191E090933801809349
:1008A0003701109247011092460181E08093480180
:1008B0006CE971E087E391E00E945F008091610143
:1008C000811111C080E591E00E94B40386E291E0BD
:1008D00090935101809350011092600110925F013A
:1008E00081E08093610165E771E080E591E00E941D
:1008F0005F001092C3011092C4011092C50198EEDE
:10090000292E93E0392E20E0A22E20E0B22E8091F5
:10091000C6019091C701892B09F011C12091C30133
:100920009091C4018091C501ECE9F1E0A5E7B1E047
:100930002083918382832C9311969C931197129616
:100940008C9312973396139631E0E33CF30781F7CB
:1009500084E68093D1018091D4019091D501A0913A
:10096000D601B091D701892B8A2B8B2BD9F00E940D
:10097000DB0000917101109172012091730130919F
:100980007401601B710B820B930B0091D4011091C9
:10099000D5012091D6013091D701601771078207E8
:1009A0009307C8F20E94DB0060937101709372019B
:1009B0008093730190937401E091DC01F091DD016B
:1009C00084E6D82E309759F04091D8015091D90142
:1009D0006091DA017091DB0184E60995D82E0091CF
:1009E0006F01109170014D2C512C712C612C01154F
:1009F000110509F45FC0D8011C96BC91BC8380919D
:100A0000D2019091D3018436910510F4F801148637
:100A1000D801ED91FC918280938019821A821B8209
:100A2000DD2089F1F8013696F12CE12C2191222369
:100A300019F1C280CC2001F130E050E040E02F5F9E
:100A40003F4F4F4F5F4FC301B2010E94A9059B0169
:100A5000AC018C2D90E0B0E0A0E0BC01CD016F5F57
:100A60007F4F8F4F9F4F0E94A905A1E0B0E0AC0FD0
:100A7000BD1FAE0DBF1D8C93BFEFEB1AFB0A33E019
:100A8000E316F10499F6D8011D964D915C911E97DD
:100A900012966D917C919E012F5F3F4FC801F4012A
:100AA0000995EC81D8011C96EC931C9714960D9136
:100AB0001C919DCF80916D0190916E018C010F5F13
:100AC0001F4F10936E0100936D0149977CF10E94B6
:100AD00000019B01AC01029DB001039D700D129DB0
:100AE000700D1124072E000C880B990BC090690122
:100AF000D0906A01E0906B01F0906C012C193D09D7
:100B00004E095F090E94CD053093D3012093D20195
:100B100010926E0110926D010E94000160936901B4
:100B200070936A0180936B0190936C018091C60170
:100B30009091C70101969093C7018093C601A114BB
:100B4000B10409F4E4CE0E940000E1CEF8940C94C4
:100B50004206DB018F939F930E940E06BF91AF91D7
:100B6000A29F800D911DA39F900DB29F900D112407
:100B7000089597FB072E16F4009407D077FD09D04F
:100B80000E94190607FC05D03EF4909581959F4F71
:100B90000895709561957F4F0895A1E21A2EAA1BC2
:100BA000BB1BFD010DC0AA1FBB1FEE1FFF1FA2171D
:100BB000B307E407F50720F0A21BB30BE40BF50B1A
:100BC000661F771F881F991F1A9469F760957095A3
:100BD000809590959B01AC01BD01CF010895052E34
:100BE00097FB1EF400940E94060657FD07D00E9452
:100BF000CD0507FC03D04EF40C94060650954095A5
:100C0000309521953F4F4F4F5F4F089590958095B8
:100C1000709561957F4F8F4F9F4F08950E943306C7
:100C2000A59F900DB49F900DA49F800D911D112440
:100C30000895AA1BBB1B51E107C0AA1FBB1FA61723
:100C4000B70710F0A61BB70B881F991F5A95A9F775
:100C500080959095BC01CD010895EE0FFF1F059082
:100C6000F491E02D0994A29FB001B39FC001A39F0E
:100C7000700D811D1124911DB29F700D811D1124D5
:080C8000911D0895F894FFCFC7
:100C8800000000000C010C010C0190038C03890387
:100C98000000000046030203680290038C038903E6
:100CA800D8010000000046030203FD0290038C03F4
:040CB80089036D023D
:00000001FF
