:100000000C9435000C945D000C945D000C945D0024
:100010000C945D000C945D000C945D000C945D00EC
:100020000C945D000C945D000C945D000C945D00DC
:100030000C945D000C945D000C945D000C945D00CC
:100040000C941A050C945D000C945D000C945D00FA
:100050000C945D000C945D000C945D000C945D00AC
:100060000C945D000C945D00640511241FBECFEF5D
:10007000D8E0DEBFCDBF11E0A0E0B1E0E6E8FDE0F2
:1000800002C005900D92A433B107D9F721E0A4E393
:10009000B1E001C01D92A83EB207E1F710E0C5E350
:1000A000D0E004C02197FE010E94AC06C433D10702
:1000B000C9F70E9474050C9425060C9400000F9358
:1000C0001F93CF93DF93EC018B01E881F9810480CA
:1000D000F581E02D09951B830A838DE090E09E87D2
:1000E0008D87E881F9810284F385E02DCE010995A1
:1000F000009701F19C0150E040E060E472E48FE081
:1001000090E00E946E068091D8019091D901A09153
:10011000DA01B091DB0182179307A407B50710F449
:10012000DA01C9018093D8019093D901A093DA0133
:10013000B093DB01CE01DF91CF911F910F91089514
:100140000895789484B5826084BD84B5816084BD4F
:1001500085B5826085BD85B5816085BDEEE6F0E040
:10016000808181608083E1E8F0E01082808182609C
:100170008083808181608083E0E8F0E0808181601D
:100180008083E1EBF0E0808184608083E0EBF0E04D
:10019000808181608083EAE7F0E0808184608083F1
:1001A000808182608083808181608083808180689B
:1001B00080831092C10008953FB7F89480913C016C
:1001C00090913D01A0913E01B0913F0126B5A89BC1
:1001D00005C02F3F19F00196A11DB11D3FBFBA2FD9
:1001E000A92F982F8827BC01CD01620F711D811D99
:1001F000911D42E0660F771F881F991F4A95D1F71E
:100200000895CF92DF92EF92FF92CF93DF930E94F7
:10021000DC00EB0182E3C82ED12CE12CF12C0E94F2
:10022000DC006C1B7D0B683E7340C8F381E0C81A8C
:10023000D108E108F108C851DC4FC114D104E10430
:10024000F10469F7DF91CF91FF90EF90DF90CF90AD
:1002500008952FB7F8946091380170913901809119
:100260003A0190913B012FBF08954F925F926F9298
:100270007F929F92AF92BF92CF92DF92EF92FF92C6
:100280000F931F93CF93DF9300D01F92CDB7DEB7AC
:10029000F82E8091D8019091D901A091DA01B09106
:1002A000DB01892B8A2B8B2BD9F00E94DC0000917B
:1002B000E4011091E5012091E6013091E701601B16
:1002C000710B820B930B0091D8011091D9012091F1
:1002D000DA013091DB016017710782079307C8F2DA
:1002E0000E94DC006093E4017093E5018093E601D5
:1002F0009093E701E091E001F091E101309759F02E
:100300004091DC015091DD016091DE017091DF01CF
:100310008F2D0995F82E0091E2011091E3014F2CE9
:10032000512C712C612C0115110509F45EC0D80106
:100330001C96EC901C978091D6019091D701843641
:10034000910510F41C961C92D801ED91FC91A280AD
:10035000B38019821A821B82FF2089F1F801369638
:10036000D12CC12C2191222319F19280992001F1E5
:1003700030E050E040E02F5F3F4F4F4F5F4FC301F1
:10038000B2010E9428069B01AC01892D90E0B0E0EB
:10039000A0E0BC01CD016F5F7F4F8F4F9F4F0E9448
:1003A0002806A1E0B0E0AC0FBD1FAC0DBD1D8C93C5
:1003B000BFEFCB1ADB0A83E0C816D10499F6D80147
:1003C0001D964D915C911E9712966D917C919E01A8
:1003D0002F5F3F4FC801F5010995D8011C96EC929B
:1003E0001C9714960D911C919ECF8091D3019091F2
:1003F000D4018C010F5F1F4F1093D4010093D301E0
:1004000049978CF10E9429019B01AC0188EE93E091
:10041000089FB001099F700D189F700D1124072EC1
:10042000000C880B990BC090CF01D090D001E090C8
:10043000D101F090D2012C193D094E095F090E94AB
:100440004C063093D7012093D6011092D40110921C
:10045000D3010E9429016093CF017093D001809352
:10046000D1019093D2010F900F900F90DF91CF9117
:100470001F910F91FF90EF90DF90CF90BF90AF90C2
:100480009F907F906F905F904F9008950F931F9370
:10049000CF93DF93209136012F5F322F3770309347
:1004A000360120FF2BC020E831FD2064347009F0B4
:1004B0002062205FFC01EC01239600E011E06485DE
:1004C0006623F1F070E0C8010E9438066F5F618713
:1004D000322F369F030E30E0311D1124311112C02E
:1004E0001682662311F0615061873196EC17FD0783
:1004F00031F7DF91CF911F910F91089520E0D4CF74
:1005000060E0E5CF31503683ECCFDC018D919C91DA
:10051000009739F0DC01ED91FC910280F381E02D30
:100520000994089587FF27C02C9A2B9A2B9886FF51
:1005300024C02C9A2B9A2B9885FF21C02C9A2B9A99
:100540002B9884FF1EC02C9A2B9A2B9883FF1BC0DC
:100550002C9A2B9A2B9882FF18C02C9A2B9A2B98A6
:1005600081FF15C02C9A2B9A2B9880FF12C02C9AD1
:100570002B9A2B9808952C98D8CF2C98DBCF2C98B9
:10058000DECF2C98E1CF2C98E4CF2C98E7CF2C9895
:10059000EACF2C98EDCFDC018D919C91009739F03A
:1005A000DC01ED91FC910190F081E02D099408951A
:1005B00087FF27C02A9A2B9A2B9886FF24C02A9A55
:1005C0002B9A2B9885FF21C02A9A2B9A2B9884FF6F
:1005D0001EC02A9A2B9A2B9883FF1BC02A9A2B9A0B
:1005E0002B9882FF18C02A9A2B9A2B9881FF15C04E
:1005F0002A9A2B9A2B9880FF12C02A9A2B9A2B9812
:1006000008952A98D8CF2A98DBCF2A98DECF2A9847
:10061000E1CF2A98E4CF2A98E7CF2A98EACF2A9800
:10062000EDCF0F931F93CF93DF93EB018C01015F0D
:100630001F4FC8010E94CB0280E00E94920280E01E
:100640000E94920280E00E94920280E00E94920248
:100650008C819D81181619060CF054C08FEF0E94F2
:100660009202E881F9812081222321F03E81230F2B
:1006700008F42FEF3C85239F020E20E0211D11245A
:10068000822F0E949202E881F9812181222321F0A8
:100690003F81230F08F42FEF3D85239F020E20E0BA
:1006A000211D1124822F0E949202E881F98122816A
:1006B000222321F03885230F08F42FEF3E85239F56
:1006C000020E20E0211D1124822F0E9492028985B2
:1006D0009E81891B8E838A859F81891B8F838B8551
:1006E0009885891B88872F8588819981820F911D24
:1006F00027FD9A95998388838C819D8101979D839D
:100700008C83A6CF0A80DB81C02DD7FD6F9685E054
:10071000D595C7958A95E1F78FEF0E94920280E008
:100720000E94920280E00E94920280E00E94920267
:10073000219790F7C801DF91CF911F910F910C94F1
:100740008502249A239A0F960C9485020F931F9387
:10075000CF93DF93EB018C01015F1F4FC8010E9413
:10076000CB0280E00E94D80280E00E94D80280E0A4
:100770000E94D80280E00E94D8028C819D811816C8
:1007800019060CF054C08FEF0E94D802E881F9815D
:100790002081222321F03E81230F08F42FEF3C8596
:1007A000239F020E20E0211D1124822F0E94D802D7
:1007B000E881F9812181222321F03F81230F08F470
:1007C0002FEF3D85239F020E20E0211D1124822F53
:1007D0000E94D802E881F9812281222321F0388504
:1007E000230F08F42FEF3E85239F020E20E0211DEA
:1007F0001124822F0E94D80289859E81891B8E83B5
:100800008A859F81891B8F838B859885891B888723
:100810002F8588819981820F911D27FD9A95998353
:1008200088838C819D8101979D838C83A6CF0A80CC
:10083000DB81C02DD7FD6F9685E0D595C7958A954C
:10084000E1F78FEF0E94D80280E00E94D80280E09A
:100850000E94D80280E00E94D802219790F7C80138
:10086000DF91CF911F910F910C948502229A239AC8
:100870000F960C9485020F931F93CF93DF93CDB700
:10088000DEB762970FB6F894DEBF0FBECDBF8C0106
:10089000F901DC011C968C917A8369835C834B831C
:1008A0005E834D8390819D8791819E8792819F87F2
:1008B0008130F1F4CE0101960E94460283E0888BDC
:1008C0001A8A198AD801ED91FC910484F585E02DEE
:1008D000BE016F5F7F4FC801099562960FB6F8940D
:1008E000DEBF0FBECDBFDF91CF911F910F91089555
:1008F0001C861B861A86198618861F82DFCF0F93E7
:100900001F93CF93DF93CDB7DEB762970FB6F894FE
:10091000DEBF0FBECDBF8C01F901DC011C968C91AE
:100920007A8369835C834B835E834D8390819D874B
:1009300091819E8792819F878130E9F4CE01019653
:100940000E944602188A1A8A198AD801ED91FC91F0
:100950000484F585E02DBE016F5F7F4FC8010995C6
:1009600062960FB6F894DEBF0FBECDBFDF91CF9178
:100970001F910F9108951C861B861A86198618866A
:100980001F82E0CF90E080E00895FC018585968588
:100990000895CF93DF9300D000D000D0CDB7DEB75D
:1009A000AB011C821D821E82DC01ED91FC91019045
:1009B000F081E02D19821A821B829E012F5F3F4F2A
:1009C000BE016C5F7F4F099526960FB6F894DEBF87
:1009D0000FBECDBFDF91CF910895FC0184E091E07F
:1009E00091838083138212828FEF8683878380872F
:1009F00081878287838781E08487168615861582A2
:100A000014828091E2019091E301892B21F4F0930B
:100A1000E301E093E201A0913401B0913501109718
:100A200021F01596FC93EE931497F0933501E09323
:100A3000340108951F920F920FB60F9211242F9335
:100A40003F938F939F93AF93BF9380913801909181
:100A50003901A0913A01B0913B013091370123E077
:100A6000230F2D3758F50196A11DB11D2093370195
:100A70008093380190933901A0933A01B0933B01E0
:100A800080913C0190913D01A0913E01B0913F01C8
:100A90000196A11DB11D80933C0190933D01A0934F
:100AA0003E01B0933F01BF91AF919F918F913F91D4
:100AB0002F910F900FBE0F901F90189526E8230FCF
:100AC0000296A11DB11DD2CFE5EDF1E08FEF80833D
:100AD00012821182148613868FEF9FEFDC018783C9
:100AE0009087A187B28708950E94A100809151014B
:100AF000811111C080E491E00E94ED0484E191E055
:100B000090934101809340011092500110924F0147
:100B100081E0809351016CE971E080E491E00E94F2
:100B20005F0080916A01811111C089E591E00E9406
:100B3000ED0486E291E090935A018093590110925E
:100B400069011092680181E080936A0165E771E0B4
:100B500089E591E00E945F0010927201109273018A
:100B6000109274018FEF8093C3011092C401109210
:100B7000C5011092C6011092C70180E88093C80198
:100B80008AE88093C9018BE28093CA0182EE809348
:100B9000CB0184E68093CC0185E98093CD018DEE75
:100BA0008093CE0180E0C82E80E0D82E09E911E0C4
:100BB000C2E7D1E0F12CE12C8091C6019091C701F0
:100BC0002091C801F8012383948385832B839C8320
:100BD0008D83E114F10461F08091720190917301B1
:100BE00020917401208391838283288399838A834F
:100BF0008091D5010E9435010E940101FFEFEF1A9B
:100C0000FF0A0D5F1F4F23968DE0E816F104A1F651
:100C10008091720190917301209174012093C00121
:100C20009093C1018093C2012093990190939A01FE
:100C300080939B018091D5010E943501C114D1049C
:100C400009F4B4CF0E940000B1CFF8940C94C1060F
:100C5000DB018F939F930E948D06BF91AF91A29F5E
:100C6000800D911DA39F900DB29F900D11240895AA
:100C700097FB072E16F4009407D077FD09D00E9449
:100C8000980607FC05D03EF4909581959F4F0895F6
:100C9000709561957F4F0895A1E21A2EAA1BBB1B88
:100CA000FD010DC0AA1FBB1FEE1FFF1FA217B30738
:100CB000E407F50720F0A21BB30BE40BF50B661F4E
:100CC000771F881F991F1A9469F760957095809512
:100CD00090959B01AC01BD01CF010895052E97FBB6
:100CE0001EF400940E94850657FD07D00E944C0612
:100CF00007FC03D04EF40C94850650954095309532
:100D000021953F4F4F4F5F4F089590958095709577
:100D100061957F4F8F4F9F4F08950E94B206A59F08
:100D2000900DB49F900DA49F800D911D11240895E6
:100D3000AA1BBB1B51E107C0AA1FBB1FA617B70701
:100D400010F0A61BB70B881F991F5A95A9F780951D
:100D50009095BC01CD010895EE0FFF1F0590F49111
:100D6000E02D0994A29FB001B39FC001A39F700D15
:100D7000811D1124911DB29F700D811D1124911DA3
:060D80000895F894FFCF76
:100D860000000000A000A000A000C904C504C20421
:100D9600000000007F043B04A103C904C504C2048B
:100DA6001103000000007F043B043604C904C50497
:040DB600C204A603CA
:00000001FF
