:100000000C9435000C945D000C945D000C945D0024
:100010000C945D000C945D000C945D000C945D00EC
:100020000C945D000C945D000C945D000C945D00DC
:100030000C945D000C945D000C945D000C945D00CC
:100040000C9407040C945D000C945D000C945D000E
:100050000C945D000C945D000C945D000C945D00AC
:100060000C945D000C945D00510411241FBECFEF71
:10007000D8E0DEBFCDBF11E0A0E0B1E0E2E9FDE0F5
:1000800002C005900D92A433B107D9F721E0A4E393
:10009000B1E001C01D92AF3EB207E1F710E0C5E349
:1000A000D0E004C02197FE010E94B206C433D107FC
:1000B000C9F70E9461040C942B060C9400000F9366
:1000C0001F93CF93DF93EC018B01E881F9810480CA
:1000D000F581E02D09951B830A838DE090E09E87D2
:1000E0008D87E881F9810284F385E02DCE010995A1
:1000F000009701F19C0150E040E060E472E48FE081
:1001000090E00E9474068091E5019091E601A09133
:10011000E701B091E80182179307A407B50710F42F
:10012000DA01C9018093E5019093E601A093E7010C
:10013000B093E801CE01DF91CF911F910F91089507
:100140000895789484B5826084BD84B5816084BD4F
:1001500085B5826085BD85B5816085BDEEE6F0E040
:10016000808181608083E1E8F0E01082808182609C
:100170008083808181608083E0E8F0E0808181601D
:100180008083E1EBF0E0808184608083E0EBF0E04D
:10019000808181608083EAE7F0E0808184608083F1
:1001A000808182608083808181608083808180689B
:1001B00080831092C10008953FB7F89480913C016C
:1001C00090913D01A0913E01B0913F0126B5A89BC1
:1001D00005C02F3F19F00196A11DB11D3FBFBA2FD9
:1001E000A92F982F8827BC01CD01620F711D811D99
:1001F000911D42E0660F771F881F991F4A95D1F71E
:100200000895CF92DF92EF92FF92CF93DF936B012D
:100210007C010E94DC00EB01C114D104E104F10473
:1002200039F4DF91CF91FF90EF90DF90CF90089558
:100230000E94DC006C1B7D0B683E734068F381E01C
:10024000C81AD108E108F108C851DC4FE5CF2FB733
:10025000F894609138017091390180913A01909140
:100260003B012FBF08950F931F93CF93DF932091EE
:1002700036012F5F322F37703093360120FF2BC0AD
:1002800020E831FD2064347009F02062205FFC0119
:10029000EC01239600E011E064856623F1F070E044
:1002A000C8010E943E066F5F6187322F369F030EA2
:1002B00030E0311D1124311112C01682662311F075
:1002C000615061873196EC17FD0731F7DF91CF91CF
:1002D0001F910F91089520E0D4CF60E0E5CF315019
:1002E0003683ECCFDC018D919C91009739F0DC01D5
:1002F000ED91FC910280F381E02D0994089587FF30
:1003000027C02C9A2B9A2B9886FF24C02C9A2B9AC4
:100310002B9885FF21C02C9A2B9A2B9884FF1EC006
:100320002C9A2B9A2B9883FF1BC02C9A2B9A2B98D4
:1003300082FF18C02C9A2B9A2B9881FF15C02C9AFB
:100340002B9A2B9880FF12C02C9A2B9A2B980895E9
:100350002C98D8CF2C98DBCF2C98DECF2C98E1CFDF
:100360002C98E4CF2C98E7CF2C98EACF2C98EDCF9F
:10037000DC018D919C91009739F0DC01ED91FC91AD
:100380000190F081E02D0994089587FF27C02A9AF3
:100390002B9A2B9886FF24C02A9A2B9A2B9885FF9C
:1003A00021C02A9A2B9A2B9884FF1EC02A9A2B9A36
:1003B0002B9883FF1BC02A9A2B9A2B9882FF18C078
:1003C0002A9A2B9A2B9881FF15C02A9A2B9A2B9840
:1003D00080FF12C02A9A2B9A2B9808952A98D8CF7A
:1003E0002A98DBCF2A98DECF2A98E1CF2A98E4CF4B
:1003F0002A98E7CF2A98EACF2A98EDCF0F931F9338
:10040000CF93DF93EB018C01015F1F4FC8010E9466
:10041000B80180E00E947F0180E00E947F0180E0BF
:100420000E947F0180E00E947F018C819D811816CF
:1004300019060CF054C08FEF0E947F01E881F9810A
:100440002081222321F03E81230F08F42FEF3C85E9
:10045000239F020E20E0211D1124822F0E947F0184
:10046000E881F9812181222321F03F81230F08F4C3
:100470002FEF3D85239F020E20E0211D1124822FA6
:100480000E947F01E881F9812281222321F03885B1
:10049000230F08F42FEF3E85239F020E20E0211D3D
:1004A0001124822F0E947F0189859E81891B8E8362
:1004B0008A859F81891B8F838B859885891B888777
:1004C0002F8588819981820F911D27FD9A959983A7
:1004D00088838C819D8101979D838C83A6CF0A8020
:1004E000DB81C02DD7FD6F9685E0D595C7958A95A0
:1004F000E1F78FEF0E947F0180E00E947F0180E0A2
:100500000E947F0180E00E947F01219790F7C8013F
:10051000DF91CF911F910F910C947201249A239A2D
:100520000F960C9472010F931F93CF93DF93EB01FF
:100530008C01015F1F4FC8010E94B80180E00E943A
:10054000C50180E00E94C50180E00E94C50180E0F5
:100550000E94C5018C819D81181619060CF054C0AB
:100560008FEF0E94C501E881F9812081222321F0CB
:100570003E81230F08F42FEF3C85239F020E20E0DD
:10058000211D1124822F0E94C501E881F98121815A
:10059000222321F03F81230F08F42FEF3D85239F75
:1005A000020E20E0211D1124822F0E94C501E88146
:1005B000F9812281222321F03885230F08F42FEFBF
:1005C0003E85239F020E20E0211D1124822F0E94D0
:1005D000C50189859E81891B8E838A859F81891BA0
:1005E0008F838B859885891B88872F858881998142
:1005F000820F911D27FD9A95998388838C819D8117
:1006000001979D838C83A6CF0A80DB81C02DD7FD07
:100610006F9685E0D595C7958A95E1F78FEF0E9493
:10062000C50180E00E94C50180E00E94C50180E014
:100630000E94C501219790F7C801DF91CF911F91CA
:100640000F910C947201229A239A0F960C947201C6
:100650000F931F93CF93DF93CDB7DEB762970FB69B
:10066000F894DEBF0FBECDBF8C01F901DC011C96F2
:100670008C917A8369835C834B835E834D83908105
:100680009D8791819E8792819F878130F1F4CE0171
:1006900001960E94330183E0888B1A8A198AD80157
:1006A000ED91FC910484F585E02DBE016F5F7F4FD5
:1006B000C801099562960FB6F894DEBF0FBECDBF94
:1006C000DF91CF911F910F9108951C861B861A868A
:1006D000198618861F82DFCF0F931F93CF93DF9366
:1006E000CDB7DEB762970FB6F894DEBF0FBECDBFB1
:1006F0008C01F901DC011C968C917A8369835C83FF
:100700004B835E834D8390819D8791819E879281EB
:100710009F878130E9F4CE0101960E943301188A47
:100720001A8A198AD801ED91FC910484F585E02D8F
:10073000BE016F5F7F4FC801099562960FB6F894AE
:10074000DEBF0FBECDBFDF91CF911F910F910895F6
:100750001C861B861A86198618861F82E0CF90E0B9
:1007600080E00895FC01858596850895CF93DF93F9
:1007700000D000D000D0CDB7DEB7AB011C821D8207
:100780001E82DC01ED91FC910190F081E02D198237
:100790001A821B829E012F5F3F4FBE016C5F7F4F0D
:1007A000099526960FB6F894DEBF0FBECDBFDF9138
:1007B000CF910895FC0184E091E0918380831382BE
:1007C00012828FEF868387838087818782878387E2
:1007D00081E08487168615861582148280917801BF
:1007E00090917901892B21F4F0937901E0937801BC
:1007F000A0913401B0913501109721F01596FC932A
:10080000EE931497F0933501E093340108951F920D
:100810000F920FB60F9211242F933F938F939F93B4
:10082000AF93BF938091380190913901A0913A0123
:10083000B0913B013091370123E0230F2D3758F55C
:100840000196A11DB11D209337018093380190932B
:100850003901A0933A01B0933B0180913C01909102
:100860003D01A0913E01B0913F010196A11DB11D36
:1008700080933C0190933D01A0933E01B0933F01D2
:10088000BF91AF919F918F913F912F910F900FBE8C
:100890000F901F90189526E8230F0296A11DB11DF9
:1008A000D2CFE2EEF1E08FEF8083128211821486C4
:1008B00013868FEF9FEFDC0187839087A187B28734
:1008C0000895CF93DF9300D01F92CDB7DEB70E947B
:1008D000A10080915101811111C080E491E00E943A
:1008E000DA0384E191E090934101809340011092FA
:1008F000500110924F0181E08093510168EA71E04C
:1009000080E491E00E945F0080916A01811111C032
:1009100089E591E00E94DA0386E291E090935A0122
:1009200080935901109269011092680181E08093CF
:100930006A0161E871E089E591E00E945F00109230
:100940007E0110927F01109280018FEF8093CF0182
:100950001092D0011092D1011092D2011092D301C5
:1009600090E89093D4019AE89093D5019BE29093FC
:10097000D60192EE9093D70194E69093D80195E931
:100980009093D9019DEE9093DA018093DB018093DF
:10099000DC018093DD0122242394312CCC24CA94E1
:1009A0008091E0019091E101892B09F0D8C08091FC
:1009B000DE019091DF01FC01EE0FFF1FE80FF91F30
:1009C000E153FE4F808191812281E8EAF1E02083AA
:1009D0009183828333964FEC51E04E175F07B9F74E
:1009E000E1E8F1E02083918382833396A8EAB1E0C5
:1009F000AE17BF07B9F73092E1012092E001C09233
:100A0000E2018091E5019091E601A091E701B091AA
:100A1000E801892B8A2B8B2BD9F00E94DC000091F6
:100A20007A0110917B0120917C0130917D01601B46
:100A3000710B820B930B0091E5011091E60120915F
:100A4000E7013091E8016017710782079307C8F248
:100A50000E94DC0060937A0170937B0180937C019B
:100A600090937D01E091ED01F091EE01DD24DA94A7
:100A7000309759F04091E9015091EA016091EB0102
:100A80007091EC018FEF0995D82E009178011091AB
:100A900079014D2C512C712C612C0115110509F493
:100AA0007DC0D8011C96BC901C978091E301909169
:100AB000E4018436910510F41C961C92D801ED9146
:100AC000FC918280938019821A821B82DD2089F139
:100AD000F8013696F12CE12C2191222319F1A28004
:100AE000AA2001F130E050E040E02F5F3F4F4F4F30
:100AF0005F4FC301B2010E942E069B01AC018A2DFB
:100B000090E0B0E0A0E0BC01CD016F5F7F4F8F4F60
:100B10009F4F0E942E06A1E0B0E0AC0FBD1FAE0DAE
:100B2000BF1D8C93BFEFEB1AFB0A33E0E316F10411
:100B300099F6D8011D964D915C911E9712966D9174
:100B40007C919E012F5F3F4FC801F4010995D801A8
:100B50001C96BC921C9714960D911C919ECF80916F
:100B60007E0190917F0120918001E8EAF1E02083ED
:100B7000918382833396B1E0EF3CFB07C1F7E1E854
:100B8000F1E0208391838283339631E0E83AF307E2
:100B9000C1F71092E1011092E00131CF809176010E
:100BA000909177018C010F5F1F4F10937701009395
:100BB000760149978CF10E9427019B01AC01E8EE78
:100BC000F3E00E9FB0010F9F700D1E9F700D11245A
:100BD000072E000C880B990B809072019090730186
:100BE000A0907401B0907501281939094A095B0970
:100BF0000E9452063093E4012093E30110927701A2
:100C0000109276010E942701609372017093730124
:100C100080937401909375018091DE019091DF01C2
:100C2000843091059CF401969093DF018093DE015E
:100C300062E370E080E090E00E94010140E050E05B
:100C4000452B09F4ADCE0E940000A8CE1092DF0122
:100C50001092DE01EDCFF8940C94C706DB018F9360
:100C60009F930E949306BF91AF91A29F800D911D0B
:100C7000A39F900DB29F900D1124089597FB072E0E
:100C800016F4009407D077FD09D00E949E0607FC59
:100C900005D03EF4909581959F4F0895709561958C
:100CA0007F4F0895A1E21A2EAA1BBB1BFD010DC0A8
:100CB000AA1FBB1FEE1FFF1FA217B307E407F5070C
:100CC00020F0A21BB30BE40BF50B661F771F881FE8
:100CD000991F1A9469F760957095809590959B017E
:100CE000AC01BD01CF010895052E97FB1EF40094C1
:100CF0000E948B0657FD07D00E94520607FC03D0C6
:100D00004EF40C948B0650954095309521953F4FAD
:100D10004F4F5F4F089590958095709561957F4FE7
:100D20008F4F9F4F08950E94B806A59F900DB49FC6
:100D3000900DA49F800D911D11240895AA1BBB1B2B
:100D400051E107C0AA1FBB1FA617B70710F0A61BCB
:100D5000B70B881F991F5A95A9F780959095BC01EC
:100D6000CD010895EE0FFF1F0590F491E02D099439
:100D7000A29FB001B39FC001A39F700D811D1124DC
:100D8000911DB29F700D811D1124911D0895F8943D
:020D9000FFCF93
:100D920000000000A000A000A000B603B203AF0351
:100DA200000000006C0328038E02B603B203AF03F7
:100DB200FE01000000006C0328032303B603B20304
:040DC200AF039302E6
:00000001FF
