:100000000C9435000C945D000C945D000C945D0024
:100010000C945D000C945D000C945D000C945D00EC
:100020000C945D000C945D000C945D000C945D00DC
:100030000C945D000C945D000C945D000C945D00CC
:100040000C9429050C945D000C945D000C945D00EB
:100050000C945D000C945D000C945D000C945D00AC
:100060000C945D000C945D00730511241FBECFEF4E
:10007000D8E0DEBFCDBF11E0A0E0B1E0EAE0FEE0F5
:1000800002C005900D92A633B107D9F721E0A6E38F
:10009000B1E001C01D92A13CB207E1F710E0C5E359
:1000A000D0E004C02197FE010E94EE06C433D107C0
:1000B000C9F70E9483050C9467060C940000CF9347
:1000C000DF93EC01E881F9810480F581E02D099549
:1000D00081E891E09B838A838DE090E09E878D8705
:1000E000E881F9810284F385E02DCE01099500971E
:1000F00001F19C0150E040E060E472E48FE090E0A8
:100100000E94B0068091B1019091B201A091B3011B
:10011000B091B40182179307A407B50710F4DA0170
:10012000C9018093B1019093B201A093B301B09340
:10013000B401CE01DF91CF9108950895789484B5EC
:10014000826084BD84B5816084BD85B5826085BDD3
:1001500085B5816085BDEEE6F0E0808181608083B9
:10016000E1E8F0E01082808182608083808181609C
:100170008083E0E8F0E0808181608083E1EBF0E063
:10018000808184608083E0EBF0E080818160808307
:10019000EAE7F0E0808184608083808182608083F0
:1001A0008081816080838081806880831092C1001B
:1001B00008953FB7F89480913E0190913F01A0913E
:1001C0004001B091410126B5A89B05C02F3F19F011
:1001D0000196A11DB11D3FBFBA2FA92F982F8827C7
:1001E000BC01CD01620F711D811D911D42E0660FA2
:1001F000771F881F991F4A95D1F70895CF92DF92F4
:10020000EF92FF92CF93DF936B017C010E94D900A4
:10021000EB010E94D9006C1B7D0B683E7340C8F354
:1002200081E0C81AD108E108F108C851DC4FC114B7
:10023000D104E104F10469F7DF91CF91FF90EF90D1
:10024000DF90CF9008952FB7F89460913A017091A4
:100250003B0180913C0190913D012FBF08954F9249
:100260005F926F927F929F92AF92BF92CF92DF92F6
:10027000EF92FF920F931F93CF93DF9300D01F92C3
:10028000CDB7DEB7F82E8091B1019091B201A09167
:10029000B301B091B401892B8A2B8B2BD9F00E942A
:1002A000D9000091BD011091BE012091BF01309194
:1002B000C001601B710B820B930B0091B101109177
:1002C000B2012091B3013091B40160177107820728
:1002D0009307C8F20E94D9006093BD017093BE01DC
:1002E0008093BF019093C001E091B901F091BA01F0
:1002F000309759F04091B5015091B6016091B70126
:100300007091B8018F2D0995F82E0091BB011091C5
:10031000BC014F2C512C712C612C0115110509F4D5
:100320005EC0D8011C96EC901C978091AF01909113
:10033000B0018436910510F41C961C92D801ED9101
:10034000FC91A280B38019821A821B82FF2089F15E
:10035000F8013696D12CC12C2191222319F19280DB
:10036000992001F130E050E040E02F5F3F4F4F4FC8
:100370005F4FC301B2010E946A069B01AC01892D47
:1003800090E0B0E0A0E0BC01CD016F5F7F4F8F4FE8
:100390009F4F0E946A06A1E0B0E0AC0FBD1FAC0DFC
:1003A000BD1D8C93BFEFCB1ADB0A83E0C816D104C6
:1003B00099F6D8011D964D915C911E9712966D91FC
:1003C0007C919E012F5F3F4FC801F5010995D8012F
:1003D0001C96EC921C9714960D911C919ECF8091C7
:1003E000AC019091AD018C010F5F1F4F1093AD01D7
:1003F0000093AC0149978CF10E9423019B01AC0151
:1004000088EE93E0089FB001099F700D189F700D52
:100410001124072E000C880B990BC090A801D090D6
:10042000A901E090AA01F090AB012C193D094E09F9
:100430005F090E948E063093B0012093AF011092A5
:10044000AD011092AC010E9423016093A80170934A
:10045000A9018093AA019093AB010F900F900F9088
:10046000DF91CF911F910F91FF90EF90DF90CF9090
:10047000BF90AF909F907F906F905F904F90089546
:100480000F931F93CF93DF93209138012F5F322F6B
:1004900037703093380120FF2BC020E831FD2064F5
:1004A000347009F02062205FFC01EC01239600E02B
:1004B00011E064856623F1F070E0C8010E947A06BD
:1004C0006F5F6187322F369F030E30E0311D11249C
:1004D000311112C01682662311F061506187319686
:1004E000EC17FD0731F7DF91CF911F910F91089520
:1004F00020E0D4CF60E0E5CF31503683ECCFDC0193
:100500008D919C91009739F0DC01ED91FC91028076
:10051000F381E02D0994089587FF27C02C9A2B9A28
:100520002B9886FF24C02C9A2B9A2B9885FF21C0EC
:100530002C9A2B9A2B9884FF1EC02C9A2B9A2B98BE
:1005400083FF1BC02C9A2B9A2B9882FF18C02C9AE1
:100550002B9A2B9881FF15C02C9A2B9A2B9880FFF1
:1005600012C02C9A2B9A2B9808952C98D8CF2C989F
:10057000DBCF2C98DECF2C98E1CF2C98E4CF2C98B1
:10058000E7CF2C98EACF2C98EDCFDC018D919C9190
:10059000009739F0DC01ED91FC910190F081E02DA4
:1005A0000994089587FF27C02A9A2B9A2B9886FFD3
:1005B00024C02A9A2B9A2B9885FF21C02A9A2B9A1D
:1005C0002B9884FF1EC02A9A2B9A2B9883FF1BC05E
:1005D0002A9A2B9A2B9882FF18C02A9A2B9A2B982A
:1005E00081FF15C02A9A2B9A2B9880FF12C02A9A55
:1005F0002B9A2B9808952A98D8CF2A98DBCF2A983F
:10060000DECF2A98E1CF2A98E4CF2A98E7CF2A981C
:10061000EACF2A98EDCF0F931F93CF93DF93EB018F
:100620008C01015F1F4FC8010E94C50280E00E943B
:100630008C0280E00E948C0280E00E948C0280E0AC
:100640000E948C028C819D81181619060CF054C0F2
:100650008FEF0E948C02E881F9812181222321F011
:100660003F81230F08F42FEF3D85239F020E20E0EA
:10067000211D1124822F0E948C02E881F9812081A2
:10068000222321F03E81230F08F42FEF3C85239F86
:10069000020E20E0211D1124822F0E948C02E8818D
:1006A000F9812281222321F03885230F08F42FEFCE
:1006B0003E85239F020E20E0211D1124822F0E94DF
:1006C0008C0289859E81891B8E838A859F81891BE7
:1006D0008F838B859885891B88872F858881998151
:1006E000820F911D27FD9A95998388838C819D8126
:1006F00001979D838C83A6CF0A80DB81C02DD7FD17
:100700006F9685E0D595C7958A95E1F78FEF0E94A2
:100710008C0280E00E948C0280E00E948C0280E0CB
:100720000E948C02219790F7C801DF91CF911F9111
:100730000F910C947F02249A239A0F960C947F02B7
:100740000F931F93CF93DF93EB018C01015F1F4F3A
:10075000C8010E94C50280E00E94D20280E00E948F
:10076000D20280E00E94D20280E00E94D2028C81FC
:100770009D81181619060CF054C08FEF0E94D2020A
:10078000E881F9812181222321F03F81230F08F4A0
:100790002FEF3D85239F020E20E0211D1124822F83
:1007A0000E94D202E881F9812081222321F03E813A
:1007B000230F08F42FEF3C85239F020E20E0211D1C
:1007C0001124822F0E94D202E881F9812281222302
:1007D00021F03885230F08F42FEF3E85239F020E6A
:1007E00020E0211D1124822F0E94D20289859E8142
:1007F000891B8E838A859F81891B8F838B85988532
:10080000891B88872F8588819981820F911D27FDFB
:100810009A95998388838C819D8101979D838C8390
:10082000A6CF0A80DB81C02DD7FD6F9685E0D595D8
:10083000C7958A95E1F78FEF0E94D20280E00E946F
:10084000D20280E00E94D20280E00E94D202219770
:1008500090F7C801DF91CF911F910F910C947F0207
:10086000229A239A0F960C947F020F931F93CF9393
:10087000DF93CDB7DEB762970FB6F894DEBF0FBE39
:10088000CDBF8C01F901DC011C968C917A836983C0
:100890005C834B835E834D8390819D8791819E878E
:1008A00092819F878130F1F4CE0101960E9440022F
:1008B00083E0888B1A8A198AD801ED91FC9104840F
:1008C000F585E02DBE016F5F7F4FC80109956296E7
:1008D0000FB6F894DEBF0FBECDBFDF91CF911F9151
:1008E0000F9108951C861B861A86198618861F820A
:1008F000DFCF0F931F93CF93DF93CDB7DEB7629710
:100900000FB6F894DEBF0FBECDBF8C01F901DC013C
:100910001C968C917A8369835C834B835E834D83C1
:1009200090819D8791819E8792819F878130E9F494
:10093000CE0101960E944002188A1A8A198AD801AB
:10094000ED91FC910484F585E02DBE016F5F7F4F32
:10095000C801099562960FB6F894DEBF0FBECDBFF1
:10096000DF91CF911F910F9108951C861B861A86E7
:10097000198618861F82E0CF90E080E00895FC0180
:10098000858596850895CF93DF9300D000D000D061
:10099000CDB7DEB7AB011C821D821E82DC01ED915A
:1009A000FC910190F081E02D19821A821B829E0138
:1009B0002F5F3F4FBE016C5F7F4F099526960FB6A4
:1009C000F894DEBF0FBECDBFDF91CF910895FC013B
:1009D00086E091E091838083138212828FEF868379
:1009E0008783808781878287838781E084871686D3
:1009F0001586158214828091BB019091BC01892BD0
:100A000021F4F093BC01E093BB01A0913601B091B9
:100A10003701109721F01596FC93EE931497F093FD
:100A20003701E09336010895409100015091010192
:100A300025E038E0429FC001439F900D529F900DEA
:100A40001124875E994C9093010180930001890FD6
:100A500008951F920F920FB60F9211242F933F9378
:100A60008F939F93AF93BF9380913A0190913B01F5
:100A7000A0913C01B0913D013091390123E0230F59
:100A80002D3758F50196A11DB11D20933901809392
:100A90003A0190933B01A0933C01B0933D018091BA
:100AA0003E0190913F01A0914001B091410101961A
:100AB000A11DB11D80933E0190933F01A093400181
:100AC000B0934101BF91AF919F918F913F912F9131
:100AD0000F900FBE0F901F90189526E8230F0296D7
:100AE000A11DB11DD2CFEEEAF1E08FEF808312821B
:100AF0001182148613868FEF9FEFDC018783908726
:100B0000A187B28708950E949E0068EB7BE080E099
:100B100090E00E94FE0080915301811111C082E497
:100B200091E00E94E70486E191E090934301809375
:100B30004201109252011092510181E080935301C1
:100B400082E491E00E945F00FC018FEF868380EBDE
:100B5000878380EF808780916C01811111C08BE5C4
:100B600091E00E94E70488E291E090935C01809319
:100B70005B0110926B0110926A0181E080936C011D
:100B80008BE591E00E945F00FC018FEF868380EB94
:100B9000878380EF808788EC8093AE0121E8822EE6
:100BA00021E0922E33E0C32ED12C4FE5642E712C20
:100BB00050E0A52E50E0B52E94E7E92E91E0F92EF5
:100BC00087010E9414054CE2849F90011124D801F2
:100BD0002D918D01231B08F420E0FD013197208326
:100BE0008A169B0671F7EFE7F1E08081229130E0F1
:100BF000820F932F911D820F931FB6010E947A06D8
:100C00006283EE16FF0689F70E9414058837B0F458
:100C10000E941405B7E08B9FE0011124CD2FDD2742
:100C20000E941405869DC001112430EA390FCC586A
:100C3000DE4F2881230F08F42FEF2883E1E8F1E04D
:100C4000D7013D917D01272D40EC332329F0349FBE
:100C5000212D112441112F5F822F880F880F27FD2E
:100C600030C026FD32C0982F20E080E020838183B1
:100C7000928333960E151F0519F78091AE010E94DD
:100C80002F010E9423011B012C0161E070E080E034
:100C900090E00E94FE008091AE010E942F010E9410
:100CA0002301621973098409950969317105810568
:100CB000910558F3A114B10409F47ECF0E940000FD
:100CC0007BCF282F8FEF9FEFD1CF20E0FCCFF89480
:100CD0000C940307DB018F939F930E94CF06BF9173
:100CE000AF91A29F800D911DA39F900DB29F900D7B
:100CF0001124089597FB072E16F4009407D077FD72
:100D000009D00E94DA0607FC05D03EF49095819543
:100D10009F4F0895709561957F4F0895A1E21A2E17
:100D2000AA1BBB1BFD010DC0AA1FBB1FEE1FFF1F8F
:100D3000A217B307E407F50720F0A21BB30BE40BDF
:100D4000F50B661F771F881F991F1A9469F7609526
:100D50007095809590959B01AC01BD01CF010895E0
:100D6000052E97FB1EF400940E94C70657FD07D07E
:100D70000E948E0607FC03D04EF40C94C7065095D3
:100D80004095309521953F4F4F4F5F4F0895909577
:100D90008095709561957F4F8F4F9F4F08950E946A
:100DA000F406A59F900DB49F900DA49F800D911DFA
:100DB00011240895AA1BBB1B51E107C0AA1FBB1F2A
:100DC000A617B70710F0A61BB70B881F991F5A95D7
:100DD000A9F780959095BC01CD010895EE0FFF1FF6
:100DE0000590F491E02D0994A29FB001B39FC0013A
:100DF000A39F700D811D1124911DB29F700D811D47
:0A0E00001124911D0895F894FFCF0E
:100E0A003905000000009D009D009D00C304BF0439
:100E1A00BC0400000000790435049B03C304BF042A
:100E2A00BC040B0300000000790435043004C30439
:060E3A00BF04BC04A0038C
:00000001FF
