:100000000C9435000C945D000C945D000C945D0024
:100010000C945D000C945D000C945D000C945D00EC
:100020000C945D000C945D000C945D000C945D00DC
:100030000C945D000C945D000C945D000C945D00CC
:100040000C94AB050C945D000C945D000C945D0069
:100050000C945D000C945D000C945D000C945D00AC
:100060000C945D000C945D00A70511241FBECFEF1A
:10007000D8E0DEBFCDBF11E0A0E0B1E0EEEFFDE0E3
:1000800002C005900D92A433B107D9F721E0A4E393
:10009000B1E001C01D92AE3DB207E1F710E0C5E34B
:1000A000D0E004C02197FE010E94E806C433D107C6
:1000B000C9F70E94DA030C9461060C940000FC015D
:1000C000858596850895CF93DF9300D000D000D02A
:1000D000CDB7DEB7AB011C821D821E82DC01ED9123
:1000E000FC910190F081E02D19821A821B829E0101
:1000F0002F5F3F4FBE016C5F7F4F099526960FB66D
:10010000F894DEBF0FBECDBFDF91CF91089590E090
:1001100080E00895FC0184E091E091838083138264
:1001200012828FEF86838783808781878287838788
:1001300081E0848716861586158214828091C60117
:100140009091C701892B21F4F093C701E093C60178
:10015000A091C401B091C501109721F01596FC93B0
:10016000EE931497F093C501E093C4010895809134
:100170004E01811118C08EE491E00E94CC03892BBE
:1001800091F086E591E00E948A0084E191E09093ED
:1001900057018093560110926601109265018EE41A
:1001A00091E00E94D50330E020E04DE050E060E9AE
:1001B00071E086E591E00E946C0580913501811126
:1001C00018C085E391E00E94CC03892B91F08DE368
:1001D00091E00E948A0086E291E090933E01809334
:1001E0003D0110924D0110924C0185E391E00E9477
:1001F000D50330E020E04DE050E069E671E08DE3AA
:1002000091E00E946C051092B7011092B801109213
:10021000B90108958091670190916801892B59F582
:100220002091B7019091B8018091B901E0E9F1E026
:10023000A9E6B1E02083918382832C9311969C934D
:10024000119712968C9312973396139631E0E73BF1
:10025000F30781F784E68093C80164E688EC91E0B7
:100260000E949F048091670190916801019690938C
:10027000680180936701089587FF27C02A9A2B9A07
:100280002B9886FF24C02A9A2B9A2B9885FF21C091
:100290002A9A2B9A2B9884FF1EC02A9A2B9A2B9865
:1002A00083FF1BC02A9A2B9A2B9882FF18C02A9A88
:1002B0002B9A2B9881FF15C02A9A2B9A2B9880FF96
:1002C00012C02A9A2B9A2B9808952A98D8CF2A9848
:1002D000DBCF2A98DECF2A98E1CF2A98E4CF2A985C
:1002E000E7CF2A98EACF2A98EDCFDC018D919C9137
:1002F000009739F0DC01ED91FC910280F381E02D53
:1003000009940895229A239A0F960C9475010F93DD
:100310001F93CF93DF93EB018C01015F1F4FDC0133
:100320001F968D919C91009739F0DC01ED91FC9125
:100330000190F081E02D099580E00E943C0180E071
:100340000E943C0180E00E943C0180E00E943C0150
:100350008C819D81181619060CF054C08FEF0E94F5
:100360003C01E881F9812081222321F03E81230F85
:1003700008F42FEF3C85239F020E20E0211D11245D
:10038000822F0E943C01E881F9812181222321F002
:100390003F81230F08F42FEF3D85239F020E20E0BD
:1003A000211D1124822F0E943C01E881F9812281C4
:1003B000222321F03885230F08F42FEF3E85239F59
:1003C000020E20E0211D1124822F0E943C0189850C
:1003D0009E81891B8E838A859F81891B8F838B8554
:1003E0009885891B88872F8588819981820F911D27
:1003F00027FD9A95998388838C819D8101979D83A0
:100400008C83A6CF0A80DB81C02DD7FD6F9685E057
:10041000D595C7958A95E1F78FEF0E943C0180E062
:100420000E943C0180E00E943C0180E00E943C016F
:10043000219790F7C801DF91CF911F910F910C94F4
:10044000750187FF27C02C9A2B9A2B9886FF24C012
:100450002C9A2B9A2B9885FF21C02C9A2B9A2B989B
:1004600084FF1EC02C9A2B9A2B9883FF1BC02C9ABA
:100470002B9A2B9882FF18C02C9A2B9A2B9881FFCD
:1004800015C02C9A2B9A2B9880FF12C02C9A2B9A6D
:100490002B9808952C98D8CF2C98DBCF2C98DECFB2
:1004A0002C98E1CF2C98E4CF2C98E7CF2C98EACF6A
:1004B0002C98EDCFDC018D919C91009739F0DC01F7
:1004C000ED91FC910280F381E02D09940895249A26
:1004D000239A0F960C945A020F931F93CF93DF9396
:1004E000EB018C01015F1F4FDC011F968D919C91E8
:1004F000009739F0DC01ED91FC910190F081E02D45
:10050000099580E00E94210280E00E94210280E0A3
:100510000E94210280E00E9421028C819D81181698
:1005200019060CF054C08FEF0E942102E881F98176
:100530002081222321F03E81230F08F42FEF3C85F8
:10054000239F020E20E0211D1124822F0E942102F0
:10055000E881F9812181222321F03F81230F08F4D2
:100560002FEF3D85239F020E20E0211D1124822FB5
:100570000E942102E881F9812281222321F038851D
:10058000230F08F42FEF3E85239F020E20E0211D4C
:100590001124822F0E94210289859E81891B8E83CE
:1005A0008A859F81891B8F838B859885891B888786
:1005B0002F8588819981820F911D27FD9A959983B6
:1005C00088838C819D8101979D838C83A6CF0A802F
:1005D000DB81C02DD7FD6F9685E0D595C7958A95AF
:1005E000E1F78FEF0E94210280E00E94210280E06B
:1005F0000E94210280E00E942102219790F7C80109
:10060000DF91CF911F910F910C945A020F931F937A
:10061000CF93DF93209134012F5F322F37703093C7
:10062000340120FF2BC020E831FD2064347009F034
:100630002062205FFC01EC01239600E011E064855C
:100640006623F1F070E0C8010E9474066F5F618755
:10065000322F369F030E30E0311D1124311112C0AC
:100660001682662311F0615061873196EC17FD0701
:1006700031F7DF91CF911F910F91089520E0D4CFF2
:1006800060E0E5CF31503683ECCF0F931F93CF93CB
:10069000DF93CDB7DEB762970FB6F894DEBF0FBE1B
:1006A000CDBF8C01F901DC011C968C917A836983A2
:1006B0005C834B835E834D8390819D8791819E8770
:1006C00092819F878130F1F4CE0101960E9406034A
:1006D00083E0888B1A8A198AD801ED91FC910484F1
:1006E000F585E02DBE016F5F7F4FC80109956296C9
:1006F0000FB6F894DEBF0FBECDBFDF91CF911F9133
:100700000F9108951C861B861A86198618861F82EB
:10071000DFCF0F931F93CF93DF93CDB7DEB76297F1
:100720000FB6F894DEBF0FBECDBF8C01F901DC011E
:100730001C968C917A8369835C834B835E834D83A3
:1007400090819D8791819E8792819F878130E9F476
:10075000CE0101960E940603188A1A8A198AD801C6
:10076000ED91FC910484F585E02DBE016F5F7F4F14
:10077000C801099562960FB6F894DEBF0FBECDBFD3
:10078000DF91CF911F910F9108951C861B861A86C9
:10079000198618861F82E0CFFC0181E090E020815D
:1007A000222311F090E080E0089521E0FC012083F5
:1007B000089508950E9426060E94B700C0E0D0E088
:1007C0000E940A012097E1F30E940000F9CF7F9276
:1007D0008F929F92AF92BF92CF92DF92EF92FF9251
:1007E0000F931F93CF93DF93FC0169011082118255
:1007F00012826623B9F18A01C1E0D0E0862E912CE5
:10080000B12CA12CD8012D918D01222339F17E012B
:10081000B1E0EB1AF108D601AE0DBF1D7C90772038
:10082000E9F030E050E040E02F5F3F4F4F4F5F4F27
:10083000C501B4010E9464069B01AC01872D90E0C4
:10084000B0E0A0E0BC01CD016F5F7F4F8F4F9F4FA5
:100850000E946406DF01AE0DBF1D8C932196C4304B
:10086000D10581F6CF01DF91CF911F910F91FF90BC
:10087000EF90DF90CF90BF90AF909F908F907F9040
:100880000895FC018FEF80831282118214861386F3
:100890008FEF9FEFDC0187839087A187B287089550
:1008A000CF92DF92EF92FF92CF93DF93EC01809192
:1008B000BE019091BF019C012F5F3F4F3093BF015C
:1008C0002093BE01861797079CF10E94F5059B01B6
:1008D000AC01E091BE01F091BF0188EE93E0E89F8A
:1008E000B001E99F700DF89F700D1124072E000CC8
:1008F000880B990BC090BA01D090BB01E090BC016D
:10090000F090BD012C193D094E095F090E9488062F
:100910003A8329831092BF011092BE010E94F5050F
:100920006093BA017093BB018093BC019093BD01A9
:10093000DF91CF91FF90EF90DF90CF900895AF922D
:10094000BF92CF92DF92EF92FF920F931F93CF93BC
:10095000DF9300D01F92CDB7DEB77C01D62EF70112
:1009600083819481A581B681892B8A2B8B2BD1F031
:100970000E9401060091C0011091C1012091C201A5
:100980003091C301601B710B820B930BD70113963F
:100990000D911D912D913C9116976017710782075B
:1009A0009307E8F20E9401066093C0017093C101B1
:1009B0008093C2019093C301D7011B96ED91FC91E6
:1009C0001C97309749F017964D915D916D917C91F0
:1009D0001A978D2D0995D82E0091C6011091C70147
:1009E0000115110569F1F801C484D70111968D91A3
:1009F0009C918436910508F41486D801ED91FC9100
:100A0000A280B3809801275F3F4FA8014A5F5F4FE4
:100A10006D2DCE0101960E94E703F80145855685AC
:100A2000628173819E012F5F3F4FC801F5010995D7
:100A3000D8011C96CC921C9714960D911C91D0CF86
:100A400069E170E0C7010E9450040F900F900F9071
:100A5000DF91CF911F910F91FF90EF90DF90CF909A
:100A6000BF90AF900895CF93DF93EC014423F1F052
:100A700061157105C1F09B0150E040E060E472E453
:100A80008FE090E00E94AA068B819C81AD81BE819F
:100A900082179307A407B50710F4DA01C9018B8305
:100AA0009C83AD83BE83DF91CF910895611571055D
:100AB00071F09B0150E040E060E472E48FE090E070
:100AC0000E94AA062B833C834D835E83ECCF1B825E
:100AD0001C821D821E82E7CFCF92DF92EF92FF929F
:100AE0000F931F93CF93DF93EC016B017A0110E01A
:100AF00000E01216130614F48A017901E881F981E5
:100B00000480F581E02DCE010995C801880F991F59
:100B1000080F191FC00ED11EDB82CA82ED86FE8629
:100B2000E881F9810284F385E02DCE01099541E049
:100B3000BC0188EC91E00E943305CE01DF91CF919A
:100B40001F910F91FF90EF90DF90CF90089588EC68
:100B500091E00C9441041F920F920FB60F92112452
:100B60002F933F938F939F93AF93BF938091D60121
:100B70009091D701A091D801B091D9013091D501C0
:100B800023E0230F2D3758F50196A11DB11D2093A9
:100B9000D5018093D6019093D701A093D801B0934B
:100BA000D9018091DA019091DB01A091DC01B09133
:100BB000DD010196A11DB11D8093DA019093DB0147
:100BC000A093DC01B093DD01BF91AF919F918F9114
:100BD0003F912F910F900FBE0F901F90189526E810
:100BE000230F0296A11DB11DD2CF2FB7F8946091AB
:100BF000D6017091D7018091D8019091D9012FBF72
:100C000008953FB7F8948091DA019091DB01A091AB
:100C1000DC01B091DD0126B5A89B05C02F3F19F07E
:100C20000196A11DB11D3FBFBA2FA92F982F88276C
:100C3000BC01CD01620F711D811D911D42E0660F47
:100C4000771F881F991F4A95D1F70895789484B526
:100C5000826084BD84B5816084BD85B5826085BDB8
:100C600085B5816085BDEEE6F0E08081816080839E
:100C7000E1E8F0E010828081826080838081816081
:100C80008083E0E8F0E0808181608083E1EBF0E048
:100C9000808184608083E0EBF0E0808181608083EC
:100CA000EAE7F0E0808184608083808182608083D5
:100CB0008081816080838081806880831092C10000
:100CC0000895F8940C94FD06DB018F939F930E9486
:100CD000C906BF91AF91A29F800D911DA39F900D5A
:100CE000B29F900D1124089597FB072E16F40094DF
:100CF00007D077FD09D00E94D40607FC05D03EF44A
:100D0000909581959F4F0895709561957F4F0895B7
:100D1000A1E21A2EAA1BBB1BFD010DC0AA1FBB1FFF
:100D2000EE1FFF1FA217B307E407F50720F0A21B71
:100D3000B30BE40BF50B661F771F881F991F1A94DE
:100D400069F760957095809590959B01AC01BD0108
:100D5000CF010895052E97FB1EF400940E94C10652
:100D600057FD07D00E94880607FC03D04EF40C9470
:100D7000C10650954095309521953F4F4F4F5F4F9D
:100D8000089590958095709561957F4F8F4F9F4FF7
:100D900008950E94EE06A59F900DB49F900DA49F0C
:100DA000800D911D11240895AA1BBB1B51E107C0A2
:100DB000AA1FBB1FA617B70710F0A61BB70B881FEB
:100DC000991F5A95A9F780959095BC01CD0108957A
:100DD000EE0FFF1F0590F491E02D0994A29FB00142
:100DE000B39FC001A39F700D811D1124911DB29F5F
:0E0DF000700D811D1124911D0895F894FFCF00
:100DFE0000000000D903D903D90363005F00870008
:100E0E000000000089034503670263005F0087004E
:100E1E006C020000000089034503820163005F003D
:040E2E0087008701B1
:00000001FF
